:100000000C94E3020C9400000C9400000C9400008B
:100010000C9400000C9400000C9400000C94000060
:100020000C9400000C9400000C9400000C94000050
:100030000C9400000C9400000C9400000C94000040
:100040000C9400000C9400000C9400000C94000030
:100050000C9400000C9400000C9400000C94000020
:100060000C9400000C9400000C9400000C94000010
:100070000C9400000C9400000C9400000C94000000
:0C0080000C9400000C9400000C94000094
:1005C600BFEFBDBFB0E1BEBF0E94770ACDB7DEB7B1
:1005D600C255D040CDBFDEBF21962F923F924F929B
:1005E6005F92B1B3BE7FB1BB0AB308600ABB0260BB
:1005F6000ABB0BB308600BBB0BBB009164000E7FFC
:1006060000936400BFEFB2B9BFEFB7BBB4DDB1E092
:100616002B2E74DFBCE02B2E71DFB5E24B2EB2E041
:100626005B2EB1E03B2EB1E02B2E21DFBCE34B2E3F
:10063600B2E05B2EB1E03B2EB2E02B2E18DF2DE9A7
:1006460010E406E90A95F1F71A95E1F72A95D1F72C
:1006560000000000BDE44B2EB2E05B2EB1E03B2E65
:10066600B2E02B2E04DF11E020E040E050E000B3C2
:100676000170602F70E0703009F4603009F062C6D6
:100686002F931F93B1E02B2E39DFBDE54B2EB2E041
:100696005B2EB1E03B2EB1E02B2EE9DE1F912F91B0
:1006A60033C5BEE14B2EB2E05B2EB1E03B2EB2E08D
:1006B6002B2EDDDEB5E1B8BBB8E4B3B924E01EE805
:1006C60003E10A95F1F71A95E1F72A95D1F70000AB
:1006D6008E0198012E5F3F4F009163000170F90172
:1006E6000193B0E0B193B5E34B2EB2E05B2EB1E0DF
:1006F6003B2EB2E02B2EBBDEB9E4B3B924E01EE8F4
:1007060003E10A95F1F71A95E1F72A95D1F700006A
:100716008E0198012C5F3F4F009163000170F90133
:100726000193B0E0B193BAE84B2EB2E05B2EB1E094
:100736003B2EB2E02B2E9BDEBAE4B3B924E01EE8D2
:1007460003E10A95F1F71A95E1F72A95D1F700002A
:100756008E0198012A5F3F4F009163000170F901F5
:100766000193B0E0B193B1E94B2EB2E05B2EB1E05C
:100776003B2EB2E02B2E7BDEBBE4B3B924E01EE8B1
:1007860003E10A95F1F71A95E1F72A95D1F70000EA
:100796008E019801285F3F4F009163000170F901B7
:1007A6000193B0E0B193B5E74B2EB2E05B2EB1E01A
:1007B6003B2EB2E02B2E5BDEBCE4B3B924E01EE890
:1007C60003E10A95F1F71A95E1F72A95D1F70000AA
:1007D6008E019801265F3F4F009163000170F90179
:1007E6000193B0E0B193BEE64B2EB2E05B2EB1E0D2
:1007F6003B2EB2E02B2E3BDEBDE4B3B924E01EE86F
:1008060003E10A95F1F71A95E1F72A95D1F7000069
:100816008E019801245F3F4F009163000170F9013A
:100826000193B0E0B193B3E84B2EB2E05B2EB1E09A
:100836003B2EB2E02B2E1BDEBEE4B3B924E01EE84D
:1008460003E10A95F1F71A95E1F72A95D1F7000029
:100856008E019801225F3F4F009163000170F901FC
:100866000193B0E0B193BCE74B2EB2E05B2EB1E052
:100876003B2EB2E02B2EFBDDBFE4B3B924E01EE82D
:1008860003E10A95F1F71A95E1F72A95D1F70000E9
:100896008E019801205F3F4F009163000170F901BE
:1008A6000193B0E0B193B8E54B2EB1E05B2EB1E019
:1008B6003B2EB2E02B2EDBDDB0E3B3B924E01EE81D
:1008C60003E10A95F1F71A95E1F72A95D1F70000A9
:1008D6008E0198012E5E3F4F009163000170F90171
:1008E6000193B0E0B193BFE54B2EB1E05B2EB1E0D2
:1008F6003B2EB2E02B2EBBDDB1E3B3B924E01EE8FC
:1009060003E10A95F1F71A95E1F72A95D1F7000068
:100916008E0198012C5E3F4F009163000170F90132
:100926000193B0E0B193B8E44B2EB1E05B2EB1E099
:100936003B2EB2E02B2E9BDDB2E3B3B924E01EE8DA
:1009460003E10A95F1F71A95E1F72A95D1F7000028
:100956008E0198012A5E3F4F009163000170F901F4
:100966000193B0E0B193B0E54B2EB1E05B2EB1E060
:100976003B2EB2E02B2E7BDDB3E3B3B924E01EE8B9
:1009860003E10A95F1F71A95E1F72A95D1F70000E8
:100996008E019801285E3F4F009163000170F901B6
:1009A6000193B0E0B193B7E64B2EB1E05B2EB1E018
:1009B6003B2EB2E02B2E5BDDB4E3B3B924E01EE898
:1009C60003E10A95F1F71A95E1F72A95D1F70000A8
:1009D6008E019801265E3F4F009163000170F90178
:1009E6000193B0E0B193BFE74B2EB1E05B2EB1E0CF
:1009F6003B2EB2E02B2E3BDDB5E3B3B924E01EE877
:100A060003E10A95F1F71A95E1F72A95D1F7000067
:100A16008E019801245E3F4F009163000170F90139
:100A26000193B0E0B193B7E84B2EB1E05B2EB1E095
:100A36003B2EB2E02B2E1BDDB6E3B3B924E01EE855
:100A460003E10A95F1F71A95E1F72A95D1F7000027
:100A56008E019801225E3F4F009163000170F901FB
:100A66000193B0E0B193BFE64B2EB1E05B2EB1E04F
:100A76003B2EB2E02B2EFBDCB7E3B3B924E01EE835
:100A860003E10A95F1F71A95E1F72A95D1F70000E7
:100A96008E019801205E3F4F009163000170F901BD
:100AA6000193B0E0B193B7E74B2EB1E05B2EB1E016
:100AB6003B2EB2E02B2EDBDCB0EDB3B9B4E1B8BB14
:100AC60024E01EE803E10A95F1F71A95E1F72A9565
:100AD600D1F700008E0198012E5D3F4F0091630013
:100AE6000170F9010193B0E0B193B0E14B2EB1E092
:100AF6005B2EB1E03B2EB2E02B2EB9DCB1EDB3B9E3
:100B0600B4E1B8BB24E01EE803E10A95F1F71A95B3
:100B1600E1F72A95D1F700008E0198012C5D3F4F31
:100B2600009163000170F9010193B0E0B193B8E15F
:100B36004B2EB1E05B2EB1E03B2EB2E02B2E97DCC4
:100B4600B2EDB3B9B4E1B8BB24E01EE803E10A95FF
:100B5600F1F71A95E1F72A95D1F700008E01980171
:100B66002A5D3F4F009163000170F9010193B0E0E7
:100B7600B193B0E04B2EB1E05B2EB1E03B2EB2E07C
:100B86002B2E75DCB3EDB3B9B4E1B8BB24E01EE897
:100B960003E10A95F1F71A95E1F72A95D1F70000D6
:100BA6008E019801285D3F4F009163000170F901A5
:100BB6000193B0E0B193B8E04B2EB1E05B2EB1E00B
:100BC6003B2EB2E02B2E53DCB4EDB3B9B4E1B8BB87
:100BD60024E01EE803E10A95F1F71A95E1F72A9554
:100BE600D1F700008E019801265D3F4F009163000A
:100BF6000170F9010193B0E0B193B0E24B2EB1E080
:100C06005B2EB1E03B2EB2E02B2E31DCB5EDB3B955
:100C1600B4E1B8BB24E01EE803E10A95F1F71A95A2
:100C2600E1F72A95D1F700008E019801245D3F4F28
:100C3600009163000170F9010193B0E0B193B8E34C
:100C46004B2EB1E05B2EB1E03B2EB2E02B2E0FDC3B
:100C5600B6EDB3B9B4E1B8BB24E01EE803E10A95EA
:100C6600F1F71A95E1F72A95D1F700008E01980160
:100C7600225D3F4F009163000170F9010193B0E0DE
:100C8600B193B0E44B2EB1E05B2EB1E03B2EB2E067
:100C96002B2EEDDBB7EDB3B9B4E1B8BB24E01EE80B
:100CA60003E10A95F1F71A95E1F72A95D1F70000C5
:100CB6008E019801205D3F4F009163000170F9019C
:100CC6000193B0E0B193B8E24B2EB1E05B2EB1E0F8
:100CD6003B2EB2E02B2ECBDBB0E5B3B9B3E1B8BB0C
:100CE60024E01EE803E10A95F1F71A95E1F72A9543
:100CF600D1F700008E0198012E5C3F4F00916300F2
:100D06000170F9010193B0E0B193B0E34B2EB1E06D
:100D16005B2EB1E03B2EB2E02B2EA9DBB1E5B3B9D9
:100D2600B3E1B8BB24E01EE803E10A95F1F71A9592
:100D3600E1F72A95D1F700008E0198012C5C3F4F10
:100D4600009163000170F9010193B0E0B193BFE82F
:100D56004B2EB1E05B2EB1E03B2EB2E02B2E87DBB3
:100D6600B2E5B3B9B3E1B8BB24E01EE803E10A95E6
:100D7600F1F71A95E1F72A95D1F700008E0198014F
:100D86002A5C3F4F009163000170F9010193B0E0C6
:100D9600B193B6EE4B2EB1E05B2EB1E03B2EB2E046
:100DA6002B2E65DBB3E5B3B9B3E1B8BB24E01EE88F
:100DB60003E10A95F1F71A95E1F72A95D1F70000B4
:100DC6008E019801285C3F4F009163000170F90184
:100DD6000193B0E0B193BEEE4B2EB1E05B2EB1E0D5
:100DE6003B2EB2E02B2E43DBB4E5B3B9B3E1B8BB7F
:100DF60024E01EE803E10A95F1F71A95E1F72A9532
:100E0600D1F700008E019801265C3F4F00916300E8
:100E16000170F9010193B0E0B193B6ED4B2EB1E04C
:100E26005B2EB1E03B2EB2E02B2E21DBB5E5B3B94C
:100E3600B3E1B8BB24E01EE803E10A95F1F71A9581
:100E4600E1F72A95D1F700008E019801245C3F4F07
:100E5600009163000170F9010193B0E0B193BEED1A
:100E66004B2EB1E05B2EB1E03B2EB2E02B2EFFDA2B
:100E7600B6E5B3B9B3E1B8BB24E01EE803E10A95D1
:100E8600F1F71A95E1F72A95D1F700008E0198013E
:100E9600225C3F4F009163000170F9010193B0E0BD
:100EA600B193B6EF4B2EB1E05B2EB1E03B2EB2E034
:100EB6002B2EDDDAB7E5B3B9B3E1B8BB24E01EE803
:100EC60003E10A95F1F71A95E1F72A95D1F70000A3
:100ED6008E019801205C3F4F009163000170F9017B
:100EE6000193B0E0B193BEE04B2EB2E05B2EB1E0D1
:100EF6003B2EB2E02B2EBBDAB0E5B3B9BDE0B8BBF2
:100F060024E01EE803E10A95F1F71A95E1F72A9520
:100F1600D1F700008E0198012E5B3F4F00916300D0
:100F26000170F9010193B0E0B193B6E14B2EB2E046
:100F36005B2EB1E03B2EB2E02B2E99DAB1E5B3B9C8
:100F4600BDE0B8BB24E01EE803E10A95F1F71A9567
:100F5600E1F72A95D1F700008E0198012C5B3F4FEF
:100F6600009163000170F9010193B0E0B193BEEF07
:100F76004B2EB1E05B2EB1E03B2EB2E02B2E77DAA2
:100F8600B2E5B3B9BDE0B8BB24E01EE803E10A95BB
:100F9600F1F71A95E1F72A95D1F700008E0198012D
:100FA6002A5B3F4F009163000170F9010193B0E0A5
:100FB600B193B6E04B2EB2E05B2EB1E03B2EB2E031
:100FC6002B2E55DAB3E5B3B9BDE0B8BB24E01EE875
:100FD60003E10A95F1F71A95E1F72A95D1F7000092
:100FE6008E019801285B3F4F009163000170F90163
:100FF6000193B0E0B193B7EA4B2EB1E05B2EB1E0BE
:101006003B2EB2E02B2E33DAB4E5B3B9BDE0B8BB64
:1010160024E01EE803E10A95F1F71A95E1F72A950F
:10102600D1F700008E019801265B3F4F00916300C7
:101036000170F9010193B0E0B193BFEA4B2EB1E024
:101046005B2EB1E03B2EB2E02B2E11DAB5E5B3B93B
:10105600BDE0B8BB24E01EE803E10A95F1F71A9556
:10106600E1F72A95D1F700008E019801245B3F4FE6
:10107600009163000170F9010193B0E0B193B7E903
:101086004B2EB1E05B2EB1E03B2EB2E02B2EEFD91A
:10109600B6E5B3B9BDE0B8BB24E01EE803E10A95A6
:1010A600F1F71A95E1F72A95D1F700008E0198011C
:1010B600225B3F4F009163000170F9010193B0E09C
:1010C600B193BFE94B2EB1E05B2EB1E03B2EB2E00F
:1010D6002B2ECDD9B7E5B3B9BDE0B8BB24E01EE8E9
:1010E60003E10A95F1F71A95E1F72A95D1F7000081
:1010F6008E019801205B3F4F009163000170F9015A
:101106000193B0E0B193C8C0203009F4113009F45E
:10111600C8CA203009F4123009F4E5CA203009F4AF
:10112600133009F400CB203009F4143009F41BCB3A
:10113600203009F4153009F436CB203009F4163086
:1011460009F451CB203009F4173009F46CCB203068
:1011560009F4183009F487CB203009F4193009F462
:10116600A2CB203009F41A3009F4BDCB203009F4A3
:101176001B3009F4D8CB203009F41C3009F4F3CB2A
:10118600203009F41D3009F40ECC203009F41E304D
:1011960009F429CC203009F41F3009F444CC20305E
:1011A60009F4103109F45FCC203009F4113109F447
:1011B6007ACC203009F4123109F497CC203009F4A6
:1011C600133109F4B4CC203009F4143109F4D1CC2C
:1011D600203009F4153109F4EECC203009F416312B
:1011E60009F40BCD203009F4173109F428CD20304D
:1011F60009F4183109F445CD203009F4193109F400
:1012060062CD203009F41A3109F47FCD203009F47B
:101216001B3109F49CCD203009F41C3109F4B9CDF9
:10122600203009F41D3109F4D6CD203009F41E31E1
:1012360009F4F3CD203009F41F3109F410CE203023
:1012460009F4103209F42DCE203009F4113209F4D4
:101256004ACE203009F4123209F467CE203009F460
:10126600133209F484CE203009F4143209F4A1CEE5
:10127600203009F4153209F4BECE203009F41632B6
:1012860009F4DBCE203009F4173209F4F8CE203009
:1012960009F4183209F415CF01E010E0BA01A801EB
:1012A60008E210E0041715070CF44CC09E018A01F1
:1012B600000F111F020F131FF80101911191103039
:1012C60009F40030A9F08B010F5F1F4FB8011030F1
:1012D60009F4083261F4B1E02B2E10D9B7EB4B2E8E
:1012E600B1E05B2EB5E03B2EB1E02B2EC0D825C079
:1012F600B1E02B2E03D9B1EC4B2EB1E05B2EB1E061
:101306003B2EB1E02B2EB3D8B1ED4B2EB1E05B2EC8
:10131600B1E03B2EB2E02B2EAAD8B8E94B2EB2E0B4
:101326005B2E1A0144D8B8E94B2EB2E05B2EB5E02D
:101336003B2EB2E02B2E9BD805C08A010F5F1F4FB4
:10134600A801AECF90C95F904F903F902F90FFCFEE
:0013560097
:10017C00B0913B00BB7FB0933B00B0913B00BE7F86
:10018C00B0933B00B0913B00BF77B0933B00B09174
:10019C003B00BF7BB0933B00B0913B00BF7DB09365
:1001AC003B00B0913B00BF7EB0933B00B0913A0056
:1001BC00B460B0933A00B0913A00B160B0933A0099
:1001CC00B0913A00B061B0933A00B0913A00B0628D
:1001DC00B0933A00B0913A00B064B0933A00B09149
:1001EC003A00B068B0933A00B4DFB3DFB2DFB0913D
:1001FC003B00B062B0933B00B0913B00B061B09358
:10020C003B00B0913B00B460B0933B00ABDFB091CE
:10021C003B00BB7FB0933B009CDFB0913B00B460D4
:10022C00B0933B009FDFB0913B00BB7FB0933B0092
:10023C0090DFB0913B00B460B0933B0093DFB09182
:10024C003B00BB7FB0933B0084DFB0913B00BF7E93
:10025C00B0933B00B0913B00B460B0933B0082DFA5
:10026C00B0913B00BB7FB0933B0073DFB0913B0080
:10027C00B460B0933B0076DFB0913B00BB7FB09392
:10028C003B00B0913B00BF7DB0933B00B0913B0075
:10029C00B068B0933B00B0913B00B460B0933B00AE
:1002AC0061DFB0913B00BB7FB0933B0052DFB0915C
:1002BC003B00BF77B0933B00B0913B00B061B09373
:1002CC003B00B0913B00B460B0933B004BDFB0916E
:1002DC003B00BB7FB0933B00B0913B00BF7EB09323
:1002EC003B00B0913B00B460B0933B003BDFB0915E
:1002FC003B00BB7FB0933B002CDFB0913B00B46064
:10030C00B0933B002FDFB0913B00BB7FB0933B0021
:10031C00B0913B00B061B0933B00B0913B00B46036
:10032C00B0933B001FDFB0913B00BB7FB0933B0011
:10033C0010DFB0913B00BF7EB0933B00B0913B000F
:10034C00B460B0933B000EDFB0913B00BB7FB09329
:10035C003B00B0913B00B068B0933B00B0913B00C8
:10036C00B064B0933B00B0913B00B062B0933B00E3
:10037C00B0913B00B061B0933B00B0913B00B460D6
:10038C00B0933B00EFDEB0913B00BB7FB0933B00E2
:0E039C00E0DEB091A202B160B093A20208951B
:10015E0014E60FEF0A95F1F71A95E1F7000000008B
:02016E000895F2
:0C01700004E00A95F1F70000000008957B
:1005020027FAB0913B00B7F9B0933B0026FAB091BD
:100512003B00B6F9B0933B0025FAB0913B00B5F928
:10052200B0933B0024FAB0913B00B4F9B0933B0086
:10053200B091A20200903B00E894B0FF689400F8EA
:1005420000923B00B0913B00B460B0933B000FDEE1
:10055200B0913B00BB7FB0933B0023FAB0913B00CC
:10056200B7F9B0933B0022FAB0913B00B6F9B093D1
:100572003B0021FAB0913B00B5F9B0933B0020FA61
:10058200B0913B00B4F9B0933B00B091A20200904D
:100592003B00E894B0FF689400F800923B00B091F1
:1005A2003B00B460B0933B00E2DDB0913B00BB7F07
:1005B200B0933B00B091A202B0FF02C0CFDD01C0F8
:0405C20078DD089543
:0A00B40009EE0A95F1F70000089527
:100474002F920FC0B0E82B2E19C0B0EC2B2E16C053
:10048400B4E92B2E13C0B4ED2B2E10C0B0E82B2EE4
:100494000DC0B1E02B1671F3B2E02B1671F3B3E08B
:1004A4002B1671F3B4E02B1671F3F0CF032D01502A
:1004B400020D202E202E23D0B091A202BE7FB09335
:1004C400A20210E0E12FF0E0E40DF51D008100230D
:1004D40079F0E12FF0E0E40DF51D00811F932F92D8
:1004E400202EEBDD2F901F91012F0F5F102FEACFED
:0E04F400B091A202B160B093A2022F900895C1
:1000BE00B091A202BE7FB093A2021CD2B091A20256
:0800CE00B160B093A202089595
:1003B400CF93DF93CDB7DEB72497CDBFDEBF2196B1
:1003C4002F923F92B0E0B883B9832A823B8200E047
:1003D40010E02016310654F4B1E0B883B0E0B983DC
:1003E40000E010E0021913090A831B832A803B8072
:1003F40070DE66E070E0AB0100E010E00417150762
:1004040090F49A01240D351D8A0101501040F80121
:10041400E40DF51D0081F90100838A0101501040AB
:10042400B801AB01E9CFF201B0E2B08308811981D0
:10043400B02FB12BA9F020E030E0F901E40DF51D57
:100444000081003229F489010F5F1F4F9801F5CF15
:10045400890101501040F801E40DF51DBDE2B0839F
:100464003F902F902396CDBFDEBFDF91CF910895AB
:0004740088
:1000D600CF93DF93CDB7DEB72297CDBFDEBF219694
:1000E60010E0153050F4E12FF0E0E40DF51DB0E21C
:1000F600B083012F0F5F102FF4CFE12FF0E0E40D56
:10010600F51DB0E0B083012F0150302F032F10E012
:10011600040D151D088319834AE050E08101B3DF01
:100126008D01202F205D08811981F80120834AE086
:1001360050E08101A8DF8C011801103009F400306D
:1001460009F404C0032F0150302FE0CF2196CDBF14
:08015600DEBFDF91CF91089597
:10008C00C801BA01AA1BBB1B51E107C0AA1FBB1FA9
:10009C00A617B70710F0A61BB70B881F991F5A9508
:0800AC00A9F7809590950895D5
:0A03AA0005900D920197E1F7089508
:1014EE00A0E0B1E0E6E5F3E188E991E00E94D501E4
:0214FE0008954F
:0813560050494E4F20323000D7
:08135E0050494E4F20323100CE
:0813660050494E4F20313800C0
:08136E0050494E4F20313900B7
:0813760050494E4F20323200B5
:08137E0050494E4F20323500AA
:0813860050494E4F20323600A1
:08138E0050494E4F203233009C
:0813960050494E4F2032340093
:08139E0050494E4F203131008F
:0813A60050494E4F2031320086
:0713AE0050494E4F203900A9
:0813B50050494E4F2031300079
:0813BD0050494E4F203133006E
:0813C50050494E4F2031360063
:0813CD0050494E4F203137005A
:0813D50050494E4F2031340055
:0813DD0050494E4F203135004C
:0813E50050494E4F2032370041
:0813ED0050494E4F2033390036
:0813F50050494E4F2034300036
:0813FD0050494E4F2033370028
:0814050050494E4F203338001E
:0A140D005445535445204F4B210075
:1014170046414C4841204E4F2054455354452100E6
:0514270050494E4F008A
:08142C0050494E4F20333000FF
:0814340050494E4F20333100F6
:08143C0050494E4F20323800E8
:0814440050494E4F20323900DF
:08144C0050494E4F20333200DD
:0814540050494E4F20333500D2
:08145C0050494E4F20333600C9
:0814640050494E4F20333300C4
:08146C0050494E4F20333400BB
:0714740050494E4F203100EA
:10147B004C555041205445434E4F4C4F474941002A
:07148B0050494E4F203200D2
:10149200496E696369616C697A616E646F2E2E2E82
:0114A2000049
:1014A3005465737461646F722056302E302E310090
:1014B300457865637574616E646F205465737465F4
:0114C3000028
:0714C40050494E4F20360095
:0714CB0050494E4F2035008F
:0714D20050494E4F20380085
:0714D90050494E4F2037007F
:0714E00050494E4F2033007C
:0714E70050494E4F20340074
:00000001FF
