:100000000C9423030C9400000C9400000C9400004A
:100010000C9400000C9400000C9400000C94000060
:100020000C9400000C9400000C9400000C94000050
:100030000C9400000C9400000C9400000C94000040
:100040000C9400000C9400000C9400000C94000030
:100050000C9400000C9400000C9400000C94000020
:100060000C9400000C9400000C9400000C94000010
:100070000C9400000C9400000C9400000C94000000
:0C0080000C9400000C9400000C94000094
:10064600BFEFBDBFB0E1BEBF0E94F90FCDB7DEB7A9
:10065600C059D040CDBFDEBF21962F923F924F9218
:100666005F926F9201B301BB01BB0E7F01BB0AB360
:1006760002600ABB08600ABBBBB3B860BBBB009193
:1006860064000E7F00936400BFEFB2B9BFEFB7BB43
:1006960004B3016004BB0D7F04BB0B7F04BB077F63
:1006A60004BB0F7E04BB0F7D04BB0F7B04BB0F771F
:1006B60004BB009161000160009361000D7F00930F
:1006C60061000B7F00936100077F0093610000616A
:1006D600009361000F7D009361000F7B0093610022
:1006E6000F770093610015DEB1E02B2EB0DDBCE084
:1006F6002B2EADDDB0E54B2EB1E05B2EB1E03B2EEF
:10070600B1E02B2E56DFBFE34B2EB1E05B2EB1E0FE
:100716003B2EB2E02B2E4DDF2DE910E406E90A95BB
:10072600F1F71A95E1F72A95D1F700000000B0E637
:100736004B2EB1E05B2EB1E03B2EB2E02B2E39DF23
:1007460022EB1FE804E10A95F1F71A95E1F72A95DD
:10075600D1F7B1E02B2E7BDDBEE74B2EB1E05B2E51
:10076600B1E03B2EB1E02B2E24DFB0E74B2EB1E0FB
:100776005B2EB1E03B2EB2E02B2E1BDF00913D013C
:1007860010913E010150104000933D0110933E012F
:1007960066245524B2E04B2EB0E32B2EB0E03B2E60
:1007A600CFDE002309F492C000910F0110911001D1
:1007B6000F5F1F4F00930F01109310016BC0B1E044
:1007C6002B2E45DDB0E04B2EB1E05B2EB1E03B2E8B
:1007D600B1E02B2EEEDEB1E14B2EB1E05B2EB1E0A7
:1007E6003B2EB2E02B2EE5DE2FE015E302E50A955F
:1007F600F1F71A95E1F72A95D1F768C0B1E02B2EEB
:1008060026DDBEE24B2EB1E05B2EB1E03B2EB1E021
:100816002B2ECFDEB2E24B2EB1E05B2EB1E03B2EAB
:10082600B2E02B2EC6DE2FE015E302E50A95F1F7BE
:100836001A95E1F72A95D1F749C0B1E02B2E07DDCD
:10084600BBE24B2EB2E05B2EB1E03B2EB1E02B2E8D
:10085600B0DEB0E24B2EB2E05B2EB1E03B2EB2E052
:100866002B2EA7DE2FE015E302E50A95F1F71A9580
:10087600E1F72A95D1F72AC000910F0110911001D6
:10088600103009F4043029F4B0E0B0930F01B093AE
:1008960010011CC000910F0110911001103009F4D5
:1008A600013009F48CCF00910F0110911001103026
:1008B60009F4023009F4A2CF00910F011091100142
:1008C600103009F4033009F4B8CFD6CF6624552486
:1008D600B3E04B2EB0E32B2EB0E03B2E31DE0023EF
:1008E60009F42EC600910F0110911001103009F481
:1008F600013009F025C6B1E02B2EA9DCBAE34B2E58
:10090600B2E05B2EB5E03B2EB1E02B2E52DEB5E514
:100916004B2EB2E05B2EB5E03B2EB2E02B2E49DE2D
:1009260000913D0110913E01B02FB12B09F408C68C
:1009360011E020E040E050E000B30170602F70E06D
:10094600703009F4603009F0E5C52F931F93B1E0CC
:100956002B2E7DDCB4E44B2EB2E05B2EB1E03B2EB9
:10096600B1E02B2E26DEB5E14B2EB2E05B2EB1E0D8
:100976003B2EB2E02B2E1DDE1F912F916FC4B5E1E9
:10098600B8BBB8E4B3B928E01BE108E20A95F1F771
:100996001A95E1F72A95D1F78E0198012E5F3F4F00
:1009A600009163000170F9010193B0E0B193B9E4DD
:1009B600B3B928E01BE108E20A95F1F71A95E1F7C9
:1009C6002A95D1F78E0198012C5F3F4F0091630065
:1009D6000170F9010193B0E0B193BAE4B3B928E02C
:1009E6001BE108E20A95F1F71A95E1F72A95D1F786
:1009F6008E0198012A5F3F4F009163000170F90153
:100A06000193B0E0B193BBE4B3B928E01BE108E27F
:100A16000A95F1F71A95E1F72A95D1F78E01980113
:100A2600285F3F4F009163000170F9010193B0E028
:100A3600B193BCE4B3B928E01BE108E20A95F1F7EB
:100A46001A95E1F72A95D1F78E019801265F3F4F57
:100A5600009163000170F9010193B0E0B193BDE428
:100A6600B3B928E01BE108E20A95F1F71A95E1F718
:100A76002A95D1F78E019801245F3F4F00916300BC
:100A86000170F9010193B0E0B193BEE4B3B928E077
:100A96001BE108E20A95F1F71A95E1F72A95D1F7D5
:100AA6008E019801225F3F4F009163000170F901AA
:100AB6000193B0E0B193BFE4B3B928E01BE108E2CB
:100AC6000A95F1F71A95E1F72A95D1F78E01980163
:100AD600205F3F4F009163000170F9010193B0E080
:100AE600B193B0E3B3B928E01BE108E20A95F1F748
:100AF6001A95E1F72A95D1F78E0198012E5E3F4FA0
:100B0600009163000170F9010193B0E0B193B1E384
:100B1600B3B928E01BE108E20A95F1F71A95E1F767
:100B26002A95D1F78E0198012C5E3F4F0091630004
:100B36000170F9010193B0E0B193B2E3B3B928E0D3
:100B46001BE108E20A95F1F71A95E1F72A95D1F724
:100B56008E0198012A5E3F4F009163000170F901F2
:100B66000193B0E0B193B3E3B3B928E01BE108E227
:100B76000A95F1F71A95E1F72A95D1F78E019801B2
:100B8600285E3F4F009163000170F9010193B0E0C8
:100B9600B193B4E3B3B928E01BE108E20A95F1F793
:100BA6001A95E1F72A95D1F78E019801265E3F4FF7
:100BB600009163000170F9010193B0E0B193B5E3D0
:100BC600B3B928E01BE108E20A95F1F71A95E1F7B7
:100BD6002A95D1F78E019801245E3F4F009163005C
:100BE6000170F9010193B0E0B193B6E3B3B928E01F
:100BF6001BE108E20A95F1F71A95E1F72A95D1F774
:100C06008E019801225E3F4F009163000170F90149
:100C16000193B0E0B193B7E3B3B928E01BE108E272
:100C26000A95F1F71A95E1F72A95D1F78E01980101
:100C3600205E3F4F009163000170F9010193B0E01F
:100C4600B193B0EDB3B9B4E1B8BB28E01BE108E25B
:100C56000A95F1F71A95E1F72A95D1F78E019801D1
:100C66002E5D3F4F009163000170F9010193B0E0E2
:100C7600B193B1EDB3B9B4E1B8BB28E01BE108E22A
:100C86000A95F1F71A95E1F72A95D1F78E019801A1
:100C96002C5D3F4F009163000170F9010193B0E0B4
:100CA600B193B2EDB3B9B4E1B8BB28E01BE108E2F9
:100CB6000A95F1F71A95E1F72A95D1F78E01980171
:100CC6002A5D3F4F009163000170F9010193B0E086
:100CD600B193B3EDB3B9B4E1B8BB28E01BE108E2C8
:100CE6000A95F1F71A95E1F72A95D1F78E01980141
:100CF600285D3F4F009163000170F9010193B0E058
:100D0600B193B4EDB3B9B4E1B8BB28E01BE108E296
:100D16000A95F1F71A95E1F72A95D1F78E01980110
:100D2600265D3F4F009163000170F9010193B0E029
:100D3600B193B5EDB3B9B4E1B8BB28E01BE108E265
:100D46000A95F1F71A95E1F72A95D1F78E019801E0
:100D5600245D3F4F009163000170F9010193B0E0FB
:100D6600B193B6EDB3B9B4E1B8BB28E01BE108E234
:100D76000A95F1F71A95E1F72A95D1F78E019801B0
:100D8600225D3F4F009163000170F9010193B0E0CD
:100D9600B193B7EDB3B9B4E1B8BB28E01BE108E203
:100DA6000A95F1F71A95E1F72A95D1F78E01980180
:100DB600205D3F4F009163000170F9010193B0E09F
:100DC600B193B0E5B3B9B3E1B8BB28E01BE108E2E3
:100DD6000A95F1F71A95E1F72A95D1F78E01980150
:100DE6002E5C3F4F009163000170F9010193B0E062
:100DF600B193B1E5B3B9B3E1B8BB28E01BE108E2B2
:100E06000A95F1F71A95E1F72A95D1F78E0198011F
:100E16002C5C3F4F009163000170F9010193B0E033
:100E2600B193B2E5B3B9B3E1B8BB28E01BE108E280
:100E36000A95F1F71A95E1F72A95D1F78E019801EF
:100E46002A5C3F4F009163000170F9010193B0E005
:100E5600B193B3E5B3B9B3E1B8BB28E01BE108E24F
:100E66000A95F1F71A95E1F72A95D1F78E019801BF
:100E7600285C3F4F009163000170F9010193B0E0D7
:100E8600B193B4E5B3B9B3E1B8BB28E01BE108E21E
:100E96000A95F1F71A95E1F72A95D1F78E0198018F
:100EA600265C3F4F009163000170F9010193B0E0A9
:100EB600B193B5E5B3B9B3E1B8BB28E01BE108E2ED
:100EC6000A95F1F71A95E1F72A95D1F78E0198015F
:100ED600245C3F4F009163000170F9010193B0E07B
:100EE600B193B6E5B3B9B3E1B8BB28E01BE108E2BC
:100EF6000A95F1F71A95E1F72A95D1F78E0198012F
:100F0600225C3F4F009163000170F9010193B0E04C
:100F1600B193B7E5B3B9B3E1B8BB28E01BE108E28A
:100F26000A95F1F71A95E1F72A95D1F78E019801FE
:100F3600205C3F4F009163000170F9010193B0E01E
:100F4600B193B0E5B3B9BDE0B8BB28E01BE108E258
:100F56000A95F1F71A95E1F72A95D1F78E019801CE
:100F66002E5B3F4F009163000170F9010193B0E0E1
:100F7600B193B1E5B3B9BDE0B8BB28E01BE108E227
:100F86000A95F1F71A95E1F72A95D1F78E0198019E
:100F96002C5B3F4F009163000170F9010193B0E0B3
:100FA600B193B2E5B3B9BDE0B8BB28E01BE108E2F6
:100FB6000A95F1F71A95E1F72A95D1F78E0198016E
:100FC6002A5B3F4F009163000170F9010193B0E085
:100FD600B193B3E5B3B9BDE0B8BB28E01BE108E2C5
:100FE6000A95F1F71A95E1F72A95D1F78E0198013E
:100FF600285B3F4F009163000170F9010193B0E057
:10100600B193B4E5B3B9BDE0B8BB28E01BE108E293
:101016000A95F1F71A95E1F72A95D1F78E0198010D
:10102600265B3F4F009163000170F9010193B0E028
:10103600B1930091620001600093620028E01BE119
:1010460008E20A95F1F71A95E1F72A95D1F78E018C
:101056009801245B3F4F00B10270F9010193B0E0A3
:10106600B1930091620001600093620028E01BE1E9
:1010760008E20A95F1F71A95E1F72A95D1F78E015C
:101086009801225B3F4F00B10470F9010193B0E073
:10109600B1930091620001600093620028E01BE1B9
:1010A60008E20A95F1F71A95E1F72A95D1F78E012C
:1010B6009801205B3F4F00B10870F9010193B0E041
:1010C600B19305B3016005BB28E01BE108E20A9570
:1010D600F1F71A95E1F72A95D1F78E0198012E5A64
:1010E6003F4F03B30270F9010193B0E0B19305B32A
:1010F600016005BB28E01BE108E20A95F1F71A95A5
:10110600E1F72A95D1F78E0198012C5A3F4F03B388
:101116000470F9010193B0E0B19305B3016005BB1A
:1011260028E01BE108E20A95F1F71A95E1F72A95FE
:10113600D1F78E0198012A5A3F4F03B30870F9017F
:101146000193B0E0B19305B3016005BB28E01BE154
:1011560008E20A95F1F71A95E1F72A95D1F78E017B
:101166009801285A3F4F03B30071F9010193B0E08B
:10117600B19305B3016005BB28E01BE108E20A95BF
:10118600F1F71A95E1F72A95D1F78E019801265ABB
:101196003F4F03B30072F9010193B0E0B19305B379
:1011A600016005BB28E01BE108E20A95F1F71A95F4
:1011B600E1F72A95D1F78E019801245A3F4F03B3E0
:1011C6000074F9010193B0E0B193009162000061EF
:1011D6000093620028E01BE108E20A95F1F71A95F0
:1011E600E1F72A95D1F78E019801225A3F4F00B1B7
:1011F6000072F9010193B0E0B193009162000061C1
:101206000093620028E01BE108E20A95F1F71A95BF
:10121600E1F72A95D1F78E019801205A3F4F00B188
:101226000074F9010193B0E0B1930091620000618E
:101236000093620028E01BE108E20A95F1F71A958F
:10124600E1F72A95D1F78E0198012E593F4F00B14B
:101256000078F9010193B0E0B193F5C0203009F4AC
:10126600113009F48CCB203009F4123009F49FCBED
:10127600203009F4133009F4B0CB203009F41430CF
:1012860009F4C1CB203009F4153009F4D2CB203053
:1012960009F4163009F4E3CB203009F4173009F4C9
:1012A600F4CB203009F4183009F405CC203009F4C9
:1012B600193009F416CC203009F41A3009F427CC79
:1012C600203009F41B3009F438CC203009F41C30E6
:1012D60009F449CC203009F41D3009F45ACC2030E9
:1012E60009F41E3009F46BCC203009F41F3009F4E0
:1012F6007CCC203009F4103109F48DCC203009F46F
:10130600113109F49ECC203009F4123109F4B1CC24
:10131600203009F4133109F4C4CC203009F4143117
:1013260009F4D7CC203009F4153109F4EACC203081
:1013360009F4163109F4FDCC203009F4173109F40B
:1013460010CD203009F4183109F423CD203009F4EA
:10135600193109F436CD203009F41A3109F449CD92
:10136600203009F41B3109F45CCD203009F41C311E
:1013760009F46FCD203009F41D3109F482CD2030F7
:1013860009F41E3109F495CD203009F41F3109F412
:10139600A8CD203009F4103209F4BBCD203009F471
:1013A600113209F4CECD203009F4123209F4E1CD20
:1013B600203009F4133209F4F4CD203009F4143244
:1013C60009F407CE203009F4153209F41ACE20307C
:1013D60009F4163209F42DCE203009F4173209F437
:1013E60040CE203009F4183209F453CE203009F4E7
:1013F600193209F466CE203009F41A3209F477CE90
:10140600203009F41B3209F488CE203009F41C324E
:1014160009F499CE203009F41D3209F4AACE203001
:1014260009F41E3209F4BBCE203009F41F3209F448
:10143600CCCE203009F4103309F4DFCE203009F485
:10144600113309F4F2CE01E010E0BA01A80101E37C
:1014560010E0041715070CF45DC09E018A01000F09
:10146600111F020F131FF80101911191103009F499
:101476000030B1F08B010F5F1F4FB801103009F437
:10148600013369F4B1E02B2E0E942A01BBE04B2EFA
:10149600B2E05B2EB5E03B2EB1E02B2E8AD835C0EC
:1014A600B1E02B2E0E942A01BBEF4B2EB1E05B2E42
:1014B600B1E03B2EB1E02B2E7CD8B7EF4B2EB1E03E
:1014C6005B2EB1E03B2EB2E02B2E73D89A01220F91
:1014D600331F01E911E0020F131FF8010191119169
:1014E60000938F0110939001B8E24B2EB3E05B2E70
:1014F60018010E94CA00B8E24B2EB3E05B2EB5E09D
:101506003B2EB2E02B2E55D805C08A010F5F1F4F28
:10151600A8019DCF66245524B2E04B2EB0E32B2EB6
:10152600B0E03B2E0DD8002351F000913D01109103
:101536003E010F5F1F4F00933D0110933E01F0C91E
:1015460066245524B3E04B2EB0E32B2EB0E03B2EA1
:101556000E94A302002309F40CC200910F0110910E
:101566001001103009F4023009F003C2B1E02B2E4D
:101576000E942A01B8E04B2EB3E05B2EB5E03B2E6D
:10158600B1E02B2E16D8BEEF4B2EB2E05B2EB5E0A7
:101596003B2EB2E02B2E0DD800913D0110913E015D
:1015A600B02FB12B09F4E5C111E020E040E050E096
:1015B60000B30170602F70E0703009F4603009F0FC
:1015C600C1C12F931F93B1E02B2E0E942A01BDEEBD
:1015D6004B2EB2E05B2EB1E03B2EB1E02B2E0E94EB
:1015E600DC02B2E14B2EB3E05B2EB1E03B2EB2E063
:1015F6002B2E0E94DC021F912F9105C1B1EDB3B9CC
:10160600B4E1B8BB28E01BE108E20A95F1F71A95A8
:10161600E1F72A95D1F78E010C591F4F98012E5FDD
:101626003F4F009163000170F9010193B0E0B1935F
:10163600B2EDB3B9B4E1B8BB28E01BE108E20A9504
:10164600F1F71A95E1F72A95D1F78E010C591F4F3C
:1016560098012C5F3F4F009163000170F9010193DF
:10166600B0E0B193B3EDB3B9B4E1B8BB28E01BE188
:1016760008E20A95F1F71A95E1F72A95D1F78E0156
:101686000C591F4F98012A5F3F4F0091630001706C
:10169600F9010193B0E0B193B4EDB3B9B4E1B8BBCD
:1016A60028E01BE108E20A95F1F71A95E1F72A9579
:1016B600D1F78E010C591F4F9801285F3F4F0091BB
:1016C60063000170F9010193B0E0B193B5EDB3B9D0
:1016D600B4E1B8BB28E01BE108E20A95F1F71A95D8
:1016E600E1F72A95D1F78E010C591F4F9801265F15
:1016F6003F4F009163000170F9010193B0E0B1938F
:10170600B6EDB3B9B4E1B8BB28E01BE108E20A952F
:10171600F1F71A95E1F72A95D1F78E010C591F4F6B
:101726009801245F3F4F009163000170F901019316
:10173600B0E0B193B7EDB3B9B4E1B8BB28E01BE1B3
:1017460008E20A95F1F71A95E1F72A95D1F78E0185
:101756000C591F4F9801225F3F4F009163000170A3
:10176600F9010193B0E0B193B0E5B3B9B3E1B8BB09
:1017760028E01BE108E20A95F1F71A95E1F72A95A8
:10178600D1F78E010C591F4F9801205F3F4F0091F2
:1017960063000170F9010193B0E0B193B1E5B3B90B
:1017A600B3E1B8BB28E01BE108E20A95F1F71A9508
:1017B600E1F72A95D1F78E010C591F4F98012E5E3D
:1017C6003F4F009163000170F9010193B0E0B193BE
:1017D600B2E5B3B9B3E1B8BB28E01BE108E20A956C
:1017E600F1F71A95E1F72A95D1F78E010C591F4F9B
:1017F60098012C5E3F4F009163000170F90101933F
:10180600B0E0B19332C0203009F4113009F4F6CEBD
:10181600203009F4123009F40BCF203009F41330CC
:1018260009F420CF203009F4143009F435CF2030E4
:1018360009F4153009F44ACF203009F4163009F4BA
:101846005FCF203009F4173009F474CF203009F443
:10185600183009F489CF203009F4193009F49ECFE5
:10186600203009F41A3009F4B3CF01E010E0BA01D0
:10187600A8010BE010E0041715070CF463C09E01E5
:101886002C593F4F8A01000F111F020F131FF80139
:1018960001911191103009F40030B9F08B010F5FFE
:1018A6001F4FB801103009F40A3071F4B1E02B2E45
:1018B6000E942A01BDE14B2EB3E05B2EB5E03B2E24
:1018C600B1E02B2E0E94DC0238C0B1E02B2E0E9424
:1018D6002A01BDED4B2EB2E05B2EB1E03B2EB1E00E
:1018E6002B2E0E94DC02B4E84B2EB2E05B2EB1E058
:1018F6003B2EB2E02B2E0E94DC029A01220F331FF0
:1019060008E812E0020F131FF801019111910093EC
:101916008F0110939001B8E24B2EB3E05B2E1801B5
:101926000E94CA00B8E24B2EB3E05B2EB5E03B2E18
:10193600B2E02B2E0E94DC0205C08A010F5F1F4F0A
:10194600A80197CF66245524B2E04B2EB0E32B2E88
:10195600B0E03B2E0E94A302002351F000913D010E
:1019660010913E010F5F1F4F00933D0110933E0102
:1019760013CE66245524B3E04B2EB0E32B2EB0E0F5
:101986003B2E0E94A302002309F40EC200910F0110
:1019960010911001103009F4033009F005C2B1E0CE
:1019A6002B2E0E942A01BAE74B2EB2E05B2EB5E041
:1019B6003B2EB1E02B2E0E94DC02BFE54B2EB2E09F
:1019C6005B2EB5E03B2EB2E02B2E0E94DC0200918E
:1019D6003D0110913E01B02FB12B09F4E5C111E094
:1019E60020E040E050E000B30170602F70E07030FE
:1019F60009F4603009F0C1C12F931F93B1E02B2E7B
:101A06000E942A01B9E64B2EB2E05B2EB1E03B2ED6
:101A1600B1E02B2E0E94DC02BEE94B2EB2E05B2E1B
:101A2600B1E03B2EB2E02B2E0E94DC021F912F91DB
:101A360005C1B3E5B3B9B3E1B8BB28E01BE108E2E1
:101A46000A95F1F71A95E1F72A95D1F78E0106580E
:101A56001F4F98012E5F3F4F009163000170F901FF
:101A66000193B0E0B193B4E5B3B9B3E1B8BB28E0F4
:101A76001BE108E20A95F1F71A95E1F72A95D1F7E5
:101A86008E0106581F4F98012C5F3F4F009163004F
:101A96000170F9010193B0E0B193B5E5B3B9B3E1D3
:101AA600B8BB28E01BE108E20A95F1F71A95E1F7C1
:101AB6002A95D1F78E0106581F4F98012A5F3F4F8E
:101AC600009163000170F9010193B0E0B193B6E5AE
:101AD600B3B9B3E1B8BB28E01BE108E20A95F1F718
:101AE6001A95E1F72A95D1F78E0106581F4F9801EE
:101AF600285F3F4F009163000170F9010193B0E048
:101B0600B193B7E5B3B9B3E1B8BB28E01BE108E28E
:101B16000A95F1F71A95E1F72A95D1F78E0106583D
:101B26001F4F9801265F3F4F009163000170F90136
:101B36000193B0E0B193B0E5B3B9BDE0B8BB28E01E
:101B46001BE108E20A95F1F71A95E1F72A95D1F714
:101B56008E0106581F4F9801245F3F4F0091630086
:101B66000170F9010193B0E0B193B1E5B3B9BDE0FD
:101B7600B8BB28E01BE108E20A95F1F71A95E1F7F0
:101B86002A95D1F78E0106581F4F9801225F3F4FC5
:101B9600009163000170F9010193B0E0B193B2E5E1
:101BA600B3B9BDE0B8BB28E01BE108E20A95F1F73E
:101BB6001A95E1F72A95D1F78E0106581F4F98011D
:101BC600205F3F4F009163000170F9010193B0E07F
:101BD600B193B3E5B3B9BDE0B8BB28E01BE108E2B9
:101BE6000A95F1F71A95E1F72A95D1F78E0106586D
:101BF6001F4F98012E5E3F4F009163000170F9015F
:101C06000193B0E0B193B4E5B3B9BDE0B8BB28E049
:101C16001BE108E20A95F1F71A95E1F72A95D1F743
:101C26008E0106581F4F98012C5E3F4F00916300AE
:101C36000170F9010193B0E0B19332C0203009F48C
:101C4600113009F4F6CE203009F4123009F40BCF26
:101C5600203009F4133009F420CF203009F4143071
:101C660009F435CF203009F4153009F44ACF203075
:101C760009F4163009F45FCF203009F4173009F45F
:101C860074CF203009F4183009F489CF203009F4D4
:101C9600193009F49ECF203009F41A3009F4B3CF75
:101CA60001E010E0BA01A8010BE010E004171507E7
:101CB6000CF463C09E0126583F4F8A01000F111F86
:101CC600020F131FF80101911191103009F4003031
:101CD600B9F08B010F5F1F4FB801103009F40A30BD
:101CE60071F4B1E02B2E0E942A01B3EC4B2EB2E028
:101CF6005B2EB5E03B2EB1E02B2E0E94DC0238C0F5
:101D0600B1E02B2E0E942A01BDEC4B2EB2E05B2ED9
:101D1600B1E03B2EB1E02B2E0E94DC02BFEB4B2E36
:101D2600B2E05B2EB1E03B2EB2E02B2E0E94DC022D
:101D36009A01220F331F09EA12E0020F131FF8015E
:101D46000191119100938F0110939001B8E24B2EEF
:101D5600B3E05B2E18010E94CA00B8E24B2EB3E036
:101D66005B2EB5E03B2EB2E02B2E0E94DC0205C0B6
:101D76008A010F5F1F4FA80197CF66245524B2E052
:101D86004B2EB0E32B2EB0E03B2E0E94A302002385
:101D960051F000913D0110913E010F5F1F4F0093DE
:101DA6003D0110933E0113CE0C94C1036F905F90DA
:081DB6004F903F902F90FFCFEA
:10031800B0913B00BB7FB0933B00B0913B00BE7FE8
:10032800B0933B00B0913B00BF77B0933B00B091D6
:100338003B00BF7BB0933B00B0913B00BF7DB093C7
:100348003B00B0913B00BF7EB0933B00B0913A00B8
:10035800B460B0933A00B0913A00B160B0933A00FB
:10036800B0913A00B061B0933A00B0913A00B062EF
:10037800B0933A00B0913A00B064B0933A00B091AB
:100388003A00B068B0933A00EDDEECDEEBDEB091F7
:100398003B00B062B0933B00B0913B00B061B093BA
:1003A8003B00B0913B00B460B0933B00E4DEB091F9
:1003B8003B00BB7FB0933B00D5DEB0913B00B460FF
:1003C800B0933B00D8DEB0913B00BB7FB0933B00BD
:1003D800C9DEB0913B00B460B0933B00CCDEB09175
:1003E8003B00BB7FB0933B00BDDEB0913B00BF7EBE
:1003F800B0933B00B0913B00B460B0933B00BBDED0
:10040800B0913B00BB7FB0933B00ACDEB0913B00AA
:10041800B460B0933B00AFDEB0913B00BB7FB093BC
:100428003B00B0913B00BF7DB0933B00B0913B00D7
:10043800B068B0933B00B0913B00B460B0933B0010
:100448009ADEB0913B00BB7FB0933B008BDEB0914E
:100458003B00BF77B0933B00B0913B00B061B093D5
:100468003B00B0913B00B460B0933B0084DEB09198
:100478003B00BB7FB0933B00B0913B00BF7EB09385
:100488003B00B0913B00B460B0933B0074DEB09188
:100498003B00BB7FB0933B0065DEB0913B00B4608E
:1004A800B0933B0068DEB0913B00BB7FB0933B004C
:1004B800B0913B00B061B0933B00B0913B00B46099
:1004C800B0933B0058DEB0913B00BB7FB0933B003C
:1004D80049DEB0913B00BF7EB0933B00B0913B003A
:1004E800B460B0933B0047DEB0913B00BB7FB09354
:1004F8003B00B0913B00B068B0933B00B0913B002B
:10050800B064B0933B00B0913B00B062B0933B0045
:10051800B0913B00B061B0933B00B0913B00B46038
:10052800B0933B0028DEB0913B00BB7FB0933B000B
:0E05380019DEB0912703B160B0932703089538
:10016C0014E60FEF0A95F1F71A95E1F7000000007D
:02017C000895E4
:0C017E0004E00A95F1F70000000008956D
:1002540027FAB0913B00B7F9B0933B0026FAB0916E
:100264003B00B6F9B0933B0025FAB0913B00B5F9D9
:10027400B0933B0024FAB0913B00B4F9B0933B0037
:10028400B091270300903B00E894B0FF689400F815
:1002940000923B00B0913B00B460B0933B006DDF33
:1002A400B0913B00BB7FB0933B0023FAB0913B007D
:1002B400B7F9B0933B0022FAB0913B00B6F9B09382
:1002C4003B0021FAB0913B00B5F9B0933B0020FA12
:1002D400B0913B00B4F9B0933B00B0912703009078
:1002E4003B00E894B0FF689400F800923B00B091A2
:1002F4003B00B460B0933B0040DFB0913B00BB7F58
:10030400B0933B00B0912703B0FF02C02DDF01C0C2
:04031400CFDE08959B
:0A00B40009EE0A95F1F70000089527
:1005B8002F920FC0B0E82B2E19C0B0EC2B2E16C00E
:1005C800B4E92B2E13C0B4ED2B2E10C0B0E82B2E9F
:1005D8000DC0B1E02B1671F3B2E02B1671F3B3E046
:1005E8002B1671F3B4E02B1671F3F0CF032D0150E5
:1005F800020D202E202E2ADEB0912703BE7FB09355
:10060800270310E0E12FF0E0E40DF51D0081002341
:1006180079F0E12FF0E0E40DF51D00811F932F9292
:10062800202E49DD2F901F91012F0F5F102FEACF49
:0E063800B0912703B160B09327032F9008956F
:1000BE00B0912703BE7FB0932703C5D0B09127031D
:0800CE00B160B093270308950F
:10054600CF93DF93CDB7DEB72297CDBFDEBF21961F
:10055600B0E0B983B42D11E0BB2319F0110FBA95A1
:10056600E9F71883F101008101230023B0E009F4C3
:10057600B1E00B2F0625B1F000E0051530F4A8DD3B
:10058600A7DD052D0150502EF7CFF101108108810E
:1005960001230023B0E009F4B1E00B2F062511F08A
:1005A600BFEFB98309812196CDBFDEBFDF91CF9121
:0205B6000895A6
:0E00D6001AE00DE00A95F1F71A95E1F708958A
:10019400CF93DF93CDB7DEB72497CDBFDEBF2196D3
:1001A4002F923F92B0E0B883B9832A823B8200E069
:1001B40010E02016310654F4B1E0B883B0E0B983FE
:1001C40000E010E0021913090A831B832A803B8094
:1001D40087DF66E070E0AB0100E010E0041715076C
:1001E40090F49A01240D351D8A0101501040F80144
:1001F400E40DF51D0081F90100838A0101501040CE
:10020400B801AB01E9CFF201B0E2B08308811981F2
:10021400B02FB12BA9F020E030E0F901E40DF51D79
:100224000081003229F489010F5F1F4F9801F5CF37
:10023400890101501040F801E40DF51DBDE2B083C1
:100244003F902F902396CDBFDEBFDF91CF910895CD
:00025400AA
:1000E400CF93DF93CDB7DEB72297CDBFDEBF219686
:1000F40010E0153050F4E12FF0E0E40DF51DB0E20E
:10010400B083012F0F5F102FF4CFE12FF0E0E40D47
:10011400F51DB0E0B083012F0150302F032F10E004
:10012400040D151D088319834AE050E08101ACDFFA
:100134008D01202F205D08811981F80120834AE078
:1001440050E08101A1DF8C011801103009F4003066
:1001540009F404C0032F0150302FE0CF2196CDBF06
:08016400DEBFDF91CF91089589
:10008C00C801BA01AA1BBB1B51E107C0AA1FBB1FA9
:10009C00A617B70710F0A61BB70B881F991F5A9508
:0800AC00A9F7809590950895D5
:0A018A0005900D920197E1F708952A
:101FF200A0E0B1E0EEEBFDE187E292E00E94C500D5
:0220020008953F
:0F1DBE00457865637574617220546573746500B0
:021DCD00000014
:101DCF00434F4D504C45544F202D20434F50454CC1
:011DDF000003
:0C1DE00049484D202D20444649504D003C
:0F1DEC0045786563757461722054657374650082
:021DFB000100E5
:101DFD00496E696369616C697A616E646F2E2E2E0E
:011E0D0000D4
:101E0E004C555041205445434E4F4C4F474941008D
:101E1E005465737461646F722056312E312E370003
:0E1E2E005072657373696F6E65204D4F4400EE
:101E3C0053656C6563696F6E61722054657374656C
:011E4C000095
:021E4D00000093
:101E4F00000032003300340035005B005C005D00A1
:101E5F004700480049004A004B004C003C003D0041
:101E6F003E003F001E001F00200021002200230023
:101E7F0024002500260027002D00280029002A0015
:101E8F002C002B002F002E00310030005E00600070
:101E9F0062004D004D004D004D004D004D004000C3
:061EAF00400040000000AD
:041EB5005649410049
:101EB90046414C4841204E4F20544553544521003A
:0A1EC9005465737465204F4B21002F
:0B1ED300416775617264652E2E2E00C1
:0B1EDE004D4F44554C4F20492F300061
:0F1EE90045786563757461722054657374650084
:0A1EF8005072657373696F6E650028
:101F0200457865637574616E646F2054657374659A
:011F120000CE
:0A1F13004578656375746172210062
:0A1F1D004578656375746172210058
:101F2700457865637574616E646F20546573746575
:011F370000A9
:0A1F38005072657373696F6E6500E7
:041F420056494100BB
:101F460000001E001F0020002100220023002400A4
:061F560025002600270013
:0B1F5C00416775617264652E2E2E0037
:101F670000002D00280029002A002C002B002F003C
:061F77002E0031003000D5
:041F7D005649410080
:0A1F81005465737465204F4B210076
:101F8B0046414C4841204E4F205445535445210067
:101F9B0046414C4841204E4F205445535445210057
:101FAB00457865637574616E646F205465737465F1
:011FBB000025
:0A1FBC0045786563757461722100B9
:0A1FC6005072657373696F6E650059
:0B1FD000416775617264652E2E2E00C3
:0A1FDB005465737465204F4B21001C
:021FE5000100F9
:021FE7000000F8
:021FE9000100F5
:021FEB000000F4
:021FED000100F1
:021FEF000000F0
:00000001FF
