:100000000C94F9110C9400000C9400000C94000066
:100010000C9400000C9400000C9400000C94000060
:100020000C9400000C9400000C9400000C94000050
:100030000C9400000C9400000C9400000C94000040
:100040000C9400000C9400000C9400000C94000030
:100050000C9400000C9400000C9400000C94000020
:100060000C9400000C9400000C9400000C94000010
:100070000C9400000C9400000C9400000C94000000
:0C0080000C9400000C9400000C94000094
:1023F200BFEFBDBFB0E1BEBF0E94D71ACDB7DEB7F7
:10240200C25ED140CDBFDEBF21962F923F924F9246
:102412005F926F9201B301BB01BB0E7F01BB0AB396
:1024220002600ABB08600ABBBBB3B860BBBB0091C9
:1024320064000E7F00936400BFEFB2B9BFEFB7BB79
:1024420004B3016004BB0D7F04BB0B7F04BB077F99
:1024520004BB0F7E04BB0F7D04BB0F7B04BB0F7755
:1024620004BB009161000160009361000D7F009345
:1024720061000B7F00936100077F009361000061A0
:10248200009361000F7D009361000F7B0093610058
:102492000F770093610065D80091D9031091DA0398
:1024A200015010400093D9031093DA036624552497
:1024B200B2E04B2EB0E32B2EB0E03B2EF1D800233E
:1024C20009F447C10091FB011091FC010F5F1F4FFE
:1024D2000093FB011093FC01FCC0B1E02B2E0E9483
:1024E2002302BDEF4B2EB1E05B2EB1E03B2EB1E0FB
:1024F2002B2E0E94C500BEEE4B2EB1E05B2EB1E04A
:102502003B2EB2E02B2E0E94C5002FE015E302E520
:102512000A95F1F71A95E1F72A95D1F71AC1B1E0B8
:102522002B2E0E942302B0ED4B2EB1E05B2EB1E0C8
:102532003B2EB1E02B2E0E94C500B1EE4B2EB1E036
:102542005B2EB1E03B2EB2E02B2E0E94C5002FE0A5
:1025520015E302E50A95F1F71A95E1F72A95D1F705
:10256200F8C0B1E02B2E0E942302B8E34B2EB2E05A
:102572005B2EB1E03B2EB1E02B2E0E94C500B9E4E8
:102582004B2EB2E05B2EB1E03B2EB2E02B2E0E942E
:10259200C5002FE015E302E50A95F1F71A95E1F778
:1025A2002A95D1F7D6C0B1E02B2E0E942302B7E2C2
:1025B2004B2EB2E05B2EB1E03B2EB1E02B2E0E94FF
:1025C200C500BEE04B2EB2E05B2EB1E03B2EB2E086
:1025D2002B2E0E94C5002FE015E302E50A95F1F7C4
:1025E2001A95E1F72A95D1F7B4C0B1E02B2E0E94DB
:1025F2002302B6E14B2EB2E05B2EB1E03B2EB1E0FE
:102602002B2E0E94C500B1E34B2EB1E05B2EB1E050
:102612003B2EB2E02B2E0E94C5002FE015E302E50F
:102622000A95F1F71A95E1F72A95D1F792C0B1E030
:102632002B2E0E942302BAE34B2EB1E05B2EB1E0B7
:102642003B2EB1E02B2E0E94C500B0E24B2EB1E032
:102652005B2EB1E03B2EB2E02B2E0E94C5002FE094
:1026620015E302E50A95F1F71A95E1F72A95D1F7F4
:1026720070C0B1E02B2E0E942302B0E04B2EB1E0DD
:102682005B2EB1E03B2EB1E02B2E0E94C500B1E1E2
:102692004B2EB1E05B2EB1E03B2EB2E02B2E0E941E
:1026A200C5002FE015E302E50A95F1F71A95E1F767
:1026B2002A95D1F74EC00091FB011091FC01103018
:1026C20009F4083029F4B0E0B093FB01B093FC01A7
:1026D20040C00091FB011091FC01103009F401305F
:1026E20009F4FBCE0091FB011091FC01103009F4BA
:1026F200023009F414CF0091FB011091FC0110305B
:1027020009F4033009F42DCF0091FB011091FC0173
:10271200103009F4043009F446CF0091FB01109106
:10272200FC01103009F4053009F45FCF0091FB0180
:102732001091FC01103009F4063009F478CF0091B1
:10274200FB011091FC01103009F4073009F491CF1C
:10275200B2CF66245524B3E04B2EB0E32B2EB0E06B
:102762003B2E0E94510B002309F4FFC00091FB0194
:102772001091FC01103009F4013009F0F6C00E94FA
:10278200300B0091D9031091DA03B02FB12B09F469
:10279200ECC0B1E02B2EB0E03B2E20E030E041E077
:1027A20050E060E070E081E390E000B3017010E07F
:1027B200103009F4003009F0C1C03F932F933F92CB
:1027C2002F920E940F0B2F903F908E01280104D868
:1027D2002F913F9101E010E039019B01BC01C8013A
:1027E2002A0168177907B4F189010F5F1F4F180199
:1027F2009E018C01000F111F020F131FF80101919E
:102802001191103009F4003029F083010F5F1F4F3E
:1028120038011AC09E012C593F4F8201000F111F2F
:10282200A801420F531F9C01220F331F02E611E041
:10283200020F131FF80101911191FA0101931193F3
:1028420082010F5F1F4F28018C010F5F1F4FC801CC
:102852009101C7CF6616770679F4B1E02B2E0E945C
:102862002302B6EC4B2EB1E05B2EB5E03B2EB1E07D
:102872002B2E0E94C50062C0B0E05B1611F4B1E0DD
:102882004B1609F45BC02617370709F057C0B1E0B1
:102892002B2E0E94230261E070E0A20164177507EB
:1028A2000CF04CC0B2E54B2EB1E05B2EB1E03B2EFA
:1028B200B1E02B2E0E94C500BBE44B2EB1E05B2E93
:1028C200B1E03B2EB2E02B2E0E94C5009E012C5996
:1028D2003F4F8B01000F111F020F131FF8010191CF
:1028E200119100935001109351015F934F937F9385
:1028F2006F93B2E04B2EB4E05B2E18010E948C0B5A
:102902006F917F914F915F91B2E04B2EB4E05B2EBD
:10291200B5E03B2EB2E02B2E0E94C50028E416E063
:1029220000EA0A95F1F71A95E1F72A95D1F7000026
:1029320000008B010F5F1F4FB801B0CF66245524F2
:10294200B2E04B2EB0E32B2EB0E03B2E0E94510B97
:10295200002351F00091D9031091DA030F5F1F4F4A
:102962000093D9031093DA030CCF66245524B3E005
:102972004B2EB0E32B2EB0E03B2E0E94510B0023D6
:1029820009F40AC10091FB011091FC01103009F415
:10299200023009F001C10E94300B0091D90310915D
:1029A200DA03B02FB12B09F4F7C061E070E020E048
:1029B20030E040E050E0B1E02B2EB0E03B2E00B31F
:1029C200017010E0103009F4003009F0CEC03F92DF
:1029D2002F923F932F930E940F0B8E0106531F4F8E
:1029E20028011B010E94C9032F913F912F903F9014
:1029F20061E070E029019A010DE110E00617170766
:102A0200C4F189010F5F1F4FC8019E0126533F4F3A
:102A12008B01000F111F020F131FF8010191119179
:102A2200103009F4003029F082010F5F1F4F280196
:102A32001AC09E012C5F3E4F8101000F111FA80199
:102A4200420F531F9B01220F331F0DEF12E0020FA3
:102A5200131FF80101911191FA0101931193810160
:102A62000F5F1F4F18018B010F5F1F4FB8019C01B1
:102A7200C3CFB0E05B1611F4BDE14B1679F4B1E0BF
:102A82002B2E0E942302B3EF4B2EB2E05B2EB5E059
:102A92003B2EB1E02B2E0E94C50067C0B0E03B1672
:102AA20011F4B1E02B1609F460C0303009F42D3175
:102AB20009F05BC03F922F92B1E02B2E0E942302BD
:102AC2002F903F9061E070E0A101641775070CF050
:102AD2004CC0BEED4B2EB2E05B2EB1E03B2EB1E01E
:102AE2002B2E0E94C500BEEE4B2EB2E05B2EB1E053
:102AF2003B2EB2E02B2E0E94C5009E012C5F3E4F62
:102B02008B01000F111F020F131FF8010191119188
:102B120000935001109351015F934F937F936F93F2
:102B2200B2E04B2EB4E05B2E18010E948C0B6F9129
:102B32007F914F915F91B2E04B2EB4E05B2EB5E0F6
:102B42003B2EB2E02B2E0E94C50028E416E000EADC
:102B52000A95F1F71A95E1F72A95D1F700000000DE
:102B62008B010F5F1F4FB801B0CF66245524B2E02E
:102B72004B2EB0E32B2EB0E03B2E0E94510B0023D4
:102B820051F00091D9031091DA030F5F1F4F0093A8
:102B9200D9031093DA0301CF66245524B3E04B2EF8
:102BA200B0E32B2EB0E03B2E0E94510B002309F420
:102BB20008C10091FB011091FC01103009F40330AF
:102BC20009F0FFC00E94300B0091D9031091DA0383
:102BD200B02FB12B09F4F5C061E070E020E030E0E5
:102BE20040E050E0B1E02B2EB0E03B2E00B301708C
:102BF20010E0103009F4003009F0CCC08E01025C04
:102C02001E4F3F922F923F932F9328011B010E9448
:102C120085022F913F912F903F9061E070E0290152
:102C22009A010BE010E006171707C4F189010F5F44
:102C32001F4FC8019E01225C3E4F8B01000F111FE6
:102C4200020F131FF80101911191103009F40030A5
:102C520029F082010F5F1F4F28011AC09E012C5AD2
:102C62003E4F8101000F111FA801420F531F9B010C
:102C7200220F331F0FE513E0020F131FF80101911A
:102C82001191FA010193119381010F5F1F4F1801F6
:102C92008B010F5F1F4FB8019C01C3CFB0E05B16E1
:102CA20011F4BBE04B1679F4B1E02B2E0E94230203
:102CB200B5E74B2EB3E05B2EB5E03B2EB1E02B2EF9
:102CC2000E94C50067C0B0E03B1611F4B1E02B16BC
:102CD20009F460C0303009F42B3009F05BC03F9238
:102CE2002F92B1E02B2E0E9423022F903F9061E0A1
:102CF20070E0A101641775070CF04CC0BFE44B2EC5
:102D0200B3E05B2EB1E03B2EB1E02B2E0E94C5005A
:102D1200B9E34B2EB3E05B2EB1E03B2EB2E02B2E9B
:102D22000E94C5009E012C5A3E4F8B01000F111FBD
:102D3200020F131FF801019111910093500110939A
:102D420051015F934F937F936F93B2E04B2EB4E0A8
:102D52005B2E18010E948C0B6F917F914F915F91B6
:102D6200B2E04B2EB4E05B2EB5E03B2EB2E02B2E50
:102D72000E94C50028E416E000EA0A95F1F71A95C8
:102D8200E1F72A95D1F7000000008B010F5F1F4F7A
:102D9200B801B0CF66245524B2E04B2EB0E32B2EFF
:102DA200B0E03B2E0E94510B002351F00091D90359
:102DB2001091DA030F5F1F4F0093D9031093DA03C8
:102DC20003CF66245524B3E04B2EB0E32B2EB0E0A4
:102DD2003B2E0E94510B002309F420C10091FB01FC
:102DE2001091FC01103009F4043009F017C10E945F
:102DF200300B0091D9031091DA03B02FB12B09F4F3
:102E02000DC161E070E020E030E0B1E02B2EB0E0D7
:102E12003B2E40E050E000B3017010E0103009F4A6
:102E2200003009F0E4C03F922F923F932F93B1E01C
:102E32002B2E0E942302BEE34B2EB3E05B2EB1E0A9
:102E42003B2EB1E02B2E0E94C500B8E74B2EB2E01C
:102E52005B2EB1E03B2EB2E02B2E0E94C5008E010C
:102E620006591E4F28011B010E9443072F913F91D3
:102E72002F903F9061E070E029019A010BE010E091
:102E820006171707C4F189010F5F1F4FC8019E0182
:102E920026593E4F8B01000F111F020F131FF8011D
:102EA20001911191103009F4003029F082010F5F75
:102EB2001F4F28011AC09E0120583E4F8101000F6A
:102EC200111FA801420F531F9B01220F331F03E85A
:102ED20012E0020F131FF80101911191FA010193FF
:102EE200119381010F5F1F4F18018B010F5F1F4F5D
:102EF200B8019C01C3CFB0E05B1611F4BBE04B16E6
:102F020079F4B1E02B2E0E942302BEE64B2EB2E0F2
:102F12005B2EB5E03B2EB1E02B2E0E94C50067C0B0
:102F2200B0E03B1611F4B1E02B1609F460C030306A
:102F320009F42B3009F05BC03F922F92B1E02B2EA7
:102F42000E9423022F903F9061E070E0A10164177C
:102F520075070CF04CC0B9E54B2EB2E05B2EB1E028
:102F62003B2EB1E02B2E0E94C500B9E64B2EB2E0FB
:102F72005B2EB1E03B2EB2E02B2E0E94C5009E01DB
:102F820020583E4F8B01000F111F020F131FF80133
:102F92000191119100935001109351015F934F934E
:102FA2007F936F93B2E04B2EB4E05B2E18010E9428
:102FB2008C0B6F917F914F915F91B2E04B2EB4E0F9
:102FC2005B2EB5E03B2EB2E02B2E0E94C50028E41A
:102FD20016E000EA0A95F1F71A95E1F72A95D1F77A
:102FE200000000008B010F5F1F4FB801B0CF6624B5
:102FF2005524B2E04B2EB0E32B2EB0E03B2E0E94C4
:10300200510B002351F00091D9031091DA030F5FA5
:103012001F4F0093D9031093DA03EBCE6624552495
:10302200B3E04B2EB0E32B2EB0E03B2E0E94510BAF
:10303200002351F00091FB011091FC01103009F4C2
:10304200053011F40E94300B66245524B3E04B2E58
:10305200B0E32B2EB0E03B2E0E94510B002309F46B
:1030620007C10091FB011091FC01103009F40630F8
:1030720009F0FEC00E94300B0091D9031091DA03CF
:10308200B02FB12B09F4F4C062E170E0B1E02B2E55
:10309200B0E03B2E20E030E041E050E080E090E004
:1030A20000B3017010E0103009F4003009F0C9C01B
:1030B2003F932F933F922F920E940F0B2F903F909E
:1030C2008E010A561E4F28010E948C082F913F91B3
:1030D20001E010E039019C01C8012A016817790753
:1030E200C4F189010F5F1F4F18019E012A563E4FFE
:1030F2008C01000F111F020F131FF8010191119192
:10310200103009F4003029F083010F5F1F4F38019E
:103112001AC09E0124543E4F8201000F111FA801C4
:10312200420F531F9C01220F331F0EEA12E0020FBF
:10313200131FF80101911191FA0101931193820178
:103142000F5F1F4F28018C010F5F1F4FC8019101B4
:10315200C5CFB0E07B1611F4B2E16B1679F4B1E0A1
:103162002B2E0E942302B4ED4B2EB2E05B2EB5E073
:103172003B2EB1E02B2E0E94C50063C0B0E05B166F
:1031820011F4B1E04B1609F45CC0303009F422317D
:1031920009F057C0B1E02B2E0E94230261E070E0DB
:1031A200A201641775070CF04CC0BEE94B2EB2E0C9
:1031B2005B2EB1E03B2EB1E02B2E0E94C500B9E997
:1031C2004B2EB2E05B2EB1E03B2EB2E02B2E0E94E2
:1031D200C5009E0124543E4F8B01000F111F020FA8
:1031E200131FF801019111910093500110935101A5
:1031F2005F934F937F936F93B2E04B2EB4E05B2EBD
:1032020018010E948C0B6F917F914F915F91B2E0F8
:103212004B2EB4E05B2EB5E03B2EB2E02B2E0E948B
:10322200C50028E416E000EA0A95F1F71A95E1F7DD
:103232002A95D1F7000000008B010F5F1F4FB801E4
:10324200B0CF66245524B2E04B2EB0E32B2EB0E073
:103252003B2E0E94510B002351F00091D903109193
:10326200DA030F5F1F4F0093D9031093DA0304CFE1
:0E32720013C96F905F904F903F902F90FFCF49
:101564002F923F924F925F920E940C01B1E02B2E7A
:101574000E942302BCE02B2E0E942302B8EB4B2EC8
:10158400B3E05B2EB1E03B2EB1E02B2E0E94C500F0
:10159400BBED4B2EB3E05B2EB1E03B2EB2E02B2E25
:1015A4000E94C5002DE910E406E90A95F1F71A95A1
:1015B400E1F72A95D1F700000000BFE74B2EB3E016
:1015C4005B2EB1E03B2EB2E02B2E0E94C50022EB35
:1015D4001FE804E10A95F1F71A95E1F72A95D1F786
:1015E400B1E02B2E0E942302BFE84B2EB3E05B2E0A
:1015F400B1E03B2EB1E02B2E0E94C500BAEA4B2E7F
:10160400B3E05B2EB1E03B2EB2E02B2E0E94C5006E
:0A1614005F904F903F902F900895D3
:10021800B0913B00BB7FB0933B00B0913B00BE7FE9
:10022800B0933B00B0913B00BF77B0933B00B091D7
:100238003B00BF7BB0933B00B0913B00BF7DB093C8
:100248003B00B0913B00BF7EB0933B00B0913A00B9
:10025800B460B0933A00B0913A00B160B0933A00FC
:10026800B0913A00B061B0933A00B0913A00B062F0
:10027800B0933A00B0913A00B064B0933A00B091AC
:100288003A00B068B0933A0014DF13DF12DFB09180
:100298003B00B062B0933B00B0913B00B061B093BB
:1002A8003B00B0913B00B460B0933B00EBDEB091F3
:1002B8003B00BB7FB0933B00FCDEB0913B00B460D9
:1002C800B0933B00DFDEB0913B00BB7FB0933B00B7
:1002D800F0DEB0913B00B460B0933B00D3DEB09148
:1002E8003B00BB7FB0933B00E4DEB0913B00BF7E98
:1002F800B0933B00B0913B00B460B0933B00C2DECA
:10030800B0913B00BB7FB0933B00D3DEB0913B0084
:10031800B460B0933B00B6DEB0913B00BB7FB093B6
:100328003B00B0913B00BF7DB0933B00B0913B00D8
:10033800B068B0933B00B0913B00B460B0933B0011
:10034800A1DEB0913B00BB7FB0933B00B2DEB09121
:100358003B00BF77B0933B00B0913B00B061B093D6
:100368003B00B0913B00B460B0933B008BDEB09192
:100378003B00BB7FB0933B00B0913B00BF7EB09386
:100388003B00B0913B00B460B0933B007BDEB09182
:100398003B00BB7FB0933B008CDEB0913B00B46068
:1003A800B0933B006FDEB0913B00BB7FB0933B0046
:1003B800B0913B00B061B0933B00B0913B00B4609A
:1003C800B0933B005FDEB0913B00BB7FB0933B0036
:1003D80070DEB0913B00BF7EB0933B00B0913B0014
:1003E800B460B0933B004EDEB0913B00BB7FB0934E
:1003F8003B00B0913B00B068B0933B00B0913B002C
:10040800B064B0933B00B0913B00B062B0933B0046
:10041800B0913B00B061B0933B00B0913B00B46039
:10042800B0933B002FDEB0913B00BB7FB0933B0005
:0E04380040DEB0910104B160B093010408955C
:1000BA0014E60FEF0A95F1F71A95E1F70000000030
:0200CA00089597
:0C008C0004E00A95F1F700000000089560
:1004460027FAB0913B00B7F9B0933B0026FAB0917A
:100456003B00B6F9B0933B0025FAB0913B00B5F9E5
:10046600B0933B0024FAB0913B00B4F9B0933B0043
:10047600B091010400903B00E894B0FF689400F846
:1004860000923B00B0913B00B460B0933B00FBDDB3
:10049600B0913B00BB7FB0933B0023FAB0913B0089
:1004A600B7F9B0933B0022FAB0913B00B6F9B0938E
:1004B6003B0021FAB0913B00B5F9B0933B0020FA1E
:1004C600B0913B00B4F9B0933B00B09101040090A9
:1004D6003B00E894B0FF689400F800923B00B091AE
:1004E6003B00B460B0933B00CEDDB0913B00BB7FD8
:1004F600B0933B00B0910104B0FF02C0DBDD01C048
:04050600D4DD0895A3
:0A00B00009EE0A95F1F7000008952B
:10018A002F920FC0B0E82B2E19C0B0EC2B2E16C040
:10019A00B4E92B2E13C0B4ED2B2E10C0B0E82B2ED1
:1001AA000DC0B1E02B1671F3B2E02B1671F3B3E078
:1001BA002B1671F3B4E02B1671F3F0CF032D015017
:1001CA00020D202E202E3AD1B0910104BE7FB093A9
:1001DA00010410E0E12FF0E0E40DF51D0081002399
:1001EA0079F0E12FF0E0E40DF51D00811F932F92C5
:1001FA00202E4DDF2F901F91012F0F5F102FEACF76
:0E020A00B0910104B160B09301042F900895EB
:10009800B0910104BE7FB0930104D1D1B0910104A5
:0800A800B160B093010408955A
:1016A200CF93DF93CDB7DEB72297CDBFDEBF2196B2
:1016B200B0E0B983B42D11E0BB2319F0110FBA9534
:1016C200E9F71883F101008101230023B0E009F456
:1016D200B1E00B2F0625C1F000E0051540F40E9491
:1016E200BE000E94BE00052D0150502EF5CFF10123
:1016F2001081088101230023B0E009F4B1E00B2F2F
:10170200062511F0BFEFB98309812196CDBFDEBF57
:06171200DF91CF91089564
:0E017C001AE00DE00A95F1F71A95E1F70895E3
:101660002F923F924F925F92B1E02B2E0E94230265
:10167000BCEE4B2EB3E05B2EB5E03B2EB1E02B2E43
:101680000E94C500B0EA4B2EB3E05B2EB5E03B2EC6
:10169000B2E02B2E0E94C5005F904F903F902F909C
:0216A0000895AB
:10161E002F923F924F925F92B1E02B2E0E942302A7
:10162E00B8EC4B2EB3E05B2EB1E03B2EB1E02B2E8F
:10163E000E94C500B6EF4B2EB3E05B2EB1E03B2E01
:10164E00B2E02B2E0E94C5005F904F903F902F90DE
:02165E000895ED
:1017DA00B2C4B5E1B8BBB8E4B3B928E01BE108E28A
:1017EA000A95F1F71A95E1F72A95D1F7F20132969F
:1017FA000091630001700193B0E0B19381010F5F22
:10180A001F4F1801B9E4B3B928E01BE108E20A95B1
:10181A00F1F71A95E1F72A95D1F7F201349600917A
:10182A00630001700193B0E0B19381010F5F1F4F14
:10183A001801BAE4B3B928E01BE108E20A95F1F706
:10184A001A95E1F72A95D1F7F201369600916300CD
:10185A0001700193B0E0B19381010F5F1F4F18012E
:10186A00BBE4B3B928E01BE108E20A95F1F71A953F
:10187A00E1F72A95D1F7F2013896009163000170D9
:10188A000193B0E0B19381010F5F1F4F1801BCE4CF
:10189A00B3B928E01BE108E20A95F1F71A95E1F7D6
:1018AA002A95D1F7F2013A960091630001700193EB
:1018BA00B0E0B19381010F5F1F4F1801BDE4B3B9C6
:1018CA0028E01BE108E20A95F1F71A95E1F72A9553
:1018DA00D1F7F2013C960091630001700193B0E0E8
:1018EA00B19381010F5F1F4F1801BEE4B3B928E01D
:1018FA001BE108E20A95F1F71A95E1F72A95D1F763
:10190A00F2013E960091630001700193B0E0B19339
:10191A0081010F5F1F4F1801BFE4B3B928E01BE133
:10192A0008E20A95F1F71A95E1F72A95D1F7F2013B
:10193A0070960091630001700193B0E0B193810148
:10194A000F5F1F4F1801B0E3B3B928E01BE108E2AB
:10195A000A95F1F71A95E1F72A95D1F7F2017296ED
:10196A000091630001700193B0E0B19381010F5FB0
:10197A001F4F1801B1E3B3B928E01BE108E20A9549
:10198A00F1F71A95E1F72A95D1F7F20174960091C9
:10199A00630001700193B0E0B19381010F5F1F4FA3
:1019AA001801B2E3B3B928E01BE108E20A95F1F79E
:1019BA001A95E1F72A95D1F7F2017696009163001C
:1019CA0001700193B0E0B19381010F5F1F4F1801BD
:1019DA00B3E3B3B928E01BE108E20A95F1F71A95D7
:1019EA00E1F72A95D1F7F201789600916300017028
:1019FA000193B0E0B19381010F5F1F4F1801B4E367
:101A0A00B3B928E01BE108E20A95F1F71A95E1F764
:101A1A002A95D1F7F2017A96009163000170019339
:101A2A00B0E0B19381010F5F1F4F1801B5E3B3B95D
:101A3A0028E01BE108E20A95F1F71A95E1F72A95E1
:101A4A00D1F7F2017C960091630001700193B0E036
:101A5A00B19381010F5F1F4F1801B6E3B3B928E0B4
:101A6A001BE108E20A95F1F71A95E1F72A95D1F7F1
:101A7A00F2017E960091630001700193B0E0B19388
:101A8A0081010F5F1F4F1801B7E3B3B928E01BE1CB
:101A9A0008E20A95F1F71A95E1F72A95D1F7F201CA
:101AAA00B0960091630001700193B0E0B193810197
:101ABA000F5F1F4F1801B0EDB3B9B4E1B8BB28E00E
:101ACA001BE108E20A95F1F71A95E1F72A95D1F791
:101ADA00F201B2960091630001700193B0E0B193F4
:101AEA0081010F5F1F4F1801B1EDB3B9B4E1B8BB63
:101AFA0028E01BE108E20A95F1F71A95E1F72A9521
:101B0A00D1F7F201B4960091630001700193B0E03D
:101B1A00B19381010F5F1F4F1801B2EDB3B9B4E160
:101B2A00B8BB28E01BE108E20A95F1F71A95E1F73C
:101B3A002A95D1F7F201B6960091630001700193DC
:101B4A00B0E0B19381010F5F1F4F1801B3EDB3B934
:101B5A00B4E1B8BB28E01BE108E20A95F1F71A954F
:101B6A00E1F72A95D1F7F201B89600916300017066
:101B7A000193B0E0B19381010F5F1F4F1801B4EDDB
:101B8A00B3B9B4E1B8BB28E01BE108E20A95F1F762
:101B9A001A95E1F72A95D1F7F201BA9600916300F6
:101BAA0001700193B0E0B19381010F5F1F4F1801DB
:101BBA00B5EDB3B9B4E1B8BB28E01BE108E20A9578
:101BCA00F1F71A95E1F72A95D1F7F201BC9600913F
:101BDA00630001700193B0E0B19381010F5F1F4F61
:101BEA001801B6EDB3B9B4E1B8BB28E01BE108E2CD
:101BFA000A95F1F71A95E1F72A95D1F7F201BE96FF
:101C0A000091630001700193B0E0B19381010F5F0D
:101C1A001F4F1801B7EDB3B9B4E1B8BB28E01BE117
:101C2A0008E20A95F1F71A95E1F72A95D1F7F20138
:101C3A00F0960091630001700193B0E0B1938101C5
:101C4A000F5F1F4F1801B0E5B3B9B3E1B8BB28E085
:101C5A001BE108E20A95F1F71A95E1F72A95D1F7FF
:101C6A00F201F2960091630001700193B0E0B19322
:101C7A0081010F5F1F4F1801B1E5B3B9B3E1B8BBDA
:101C8A0028E01BE108E20A95F1F71A95E1F72A958F
:101C9A00D1F7F201F4960091630001700193B0E06C
:101CAA00B19381010F5F1F4F1801B2E5B3B9B3E1D8
:101CBA00B8BB28E01BE108E20A95F1F71A95E1F7AB
:101CCA002A95D1F7F201F69600916300017001930B
:101CDA00B0E0B19381010F5F1F4F1801B3E5B3B9AB
:101CEA00B3E1B8BB28E01BE108E20A95F1F71A95BF
:101CFA00E1F72A95D1F7F201F89600916300017095
:101D0A000193B0E0B19381010F5F1F4F1801B4E551
:101D1A00B3B9B3E1B8BB28E01BE108E20A95F1F7D1
:101D2A001A95E1F72A95D1F7F201FA960091630024
:101D3A0001700193B0E0B19381010F5F1F4F180149
:101D4A00B5E5B3B9B3E1B8BB28E01BE108E20A95EF
:101D5A00F1F71A95E1F72A95D1F7F201FC9600916D
:101D6A00630001700193B0E0B19381010F5F1F4FCF
:101D7A001801B6E5B3B9B3E1B8BB28E01BE108E244
:101D8A000A95F1F71A95E1F72A95D1F7F201FE962D
:101D9A000091630001700193B0E0B19381010F5F7C
:101DAA001F4F1801B7E5B3B9B3E1B8BB28E01BE18F
:101DBA0008E20A95F1F71A95E1F72A95D1F7F201A7
:101DCA00E05CFF4F0091630001700193B0E0B193B2
:101DDA0081010F5F1F4F1801B0E5B3B9BDE0B8BB71
:101DEA0028E01BE108E20A95F1F71A95E1F72A952E
:101DFA00D1F7F201EE5BFF4F00916300017001938E
:101E0A00B0E0B19381010F5F1F4F1801B1E5B3B97B
:101E1A00BDE0B8BB28E01BE108E20A95F1F71A9584
:101E2A00E1F72A95D1F7F201EC5BFF4F00916300CD
:101E3A0001700193B0E0B19381010F5F1F4F180148
:101E4A00B2E5B3B9BDE0B8BB28E01BE108E20A95E8
:101E5A00F1F71A95E1F72A95D1F7F201EA5BFF4FFC
:101E6A000091630001700193B0E0B19381010F5FAB
:101E7A001F4F1801B3E5B3B9BDE0B8BB28E01BE1B9
:101E8A0008E20A95F1F71A95E1F72A95D1F7F201D6
:101E9A00E85BFF4F0091630001700193B0E0B193DA
:101EAA0081010F5F1F4F1801B4E5B3B9BDE0B8BB9C
:101EBA0028E01BE108E20A95F1F71A95E1F72A955D
:101ECA00D1F7F201E65BFF4F0091630001700193C5
:101EDA00B0E0B19381010F5F1F4F180100916200BA
:101EEA0001600093620028E01BE108E20A95F1F71D
:101EFA001A95E1F72A95D1F7F201E45BFF4F00B199
:101F0A0002700193B0E0B19381010F5F1F4F180176
:101F1A000091620001600093620028E01BE108E280
:101F2A000A95F1F71A95E1F72A95D1F7F201E25BE2
:101F3A00FF4F00B104700193B0E0B19381010F5FCC
:101F4A001F4F18010091620001600093620028E0AF
:101F5A001BE108E20A95F1F71A95E1F72A95D1F7FC
:101F6A00F201E05BFF4F00B108700193B0E0B1935A
:101F7A0081010F5F1F4F180105B3016005BB28E0FF
:101F8A001BE108E20A95F1F71A95E1F72A95D1F7CC
:101F9A00F201EE5AFF4F03B302700193B0E0B1931E
:101FAA0081010F5F1F4F180105B3016005BB28E0CF
:101FBA001BE108E20A95F1F71A95E1F72A95D1F79C
:101FCA00F201EC5AFF4F03B304700193B0E0B193EE
:101FDA0081010F5F1F4F180105B3016005BB28E09F
:101FEA001BE108E20A95F1F71A95E1F72A95D1F76C
:101FFA00F201EA5AFF4F03B308700193B0E0B193BC
:10200A0081010F5F1F4F180105B3016005BB28E06E
:10201A001BE108E20A95F1F71A95E1F72A95D1F73B
:10202A00F201E85AFF4F03B300710193B0E0B19394
:10203A0081010F5F1F4F180105B3016005BB28E03E
:10204A001BE108E20A95F1F71A95E1F72A95D1F70B
:10205A00F201E65AFF4F03B300720193B0E0B19365
:10206A0081010F5F1F4F180105B3016005BB28E00E
:10207A001BE108E20A95F1F71A95E1F72A95D1F7DB
:10208A00F201E45AFF4F03B300740193B0E0B19335
:10209A0081010F5F1F4F1801B0916200B061B093C8
:1020AA00620028E01BE108E20A95F1F71A95E1F7C8
:1020BA002A95D1F7F201E25AFF4F00B1007201935B
:1020CA00B0E0B19381010F5F1F4F180100916200C8
:1020DA0000610093620028E01BE108E20A95F1F72B
:1020EA001A95E1F72A95D1F7F201E05AFF4F00B1AC
:1020FA0000740193B0E0B19381010F5F1F4F180183
:10210A000091620000610093620028E01BE108E28E
:10211A000A95F1F71A95E1F72A95D1F7F201EE59E6
:10212A00FF4F00B100780193B0E0B19381010F5FD6
:10213A001F4F180157C1B0E03B1611F4B1E02B163E
:10214A0009F447CBB0E03B1611F4B2E02B1609F4C0
:10215A0059CBB0E03B1611F4B3E02B1609F469CB66
:10216A00B0E03B1611F4B4E02B1609F479CBB0E0D9
:10217A003B1611F4B5E02B1609F489CBB0E03B16F7
:10218A0011F4B6E02B1609F499CBB0E03B1611F422
:10219A00B7E02B1609F4A9CBB0E03B1611F4B8E06E
:1021AA002B1609F4B9CBB0E03B1611F4B9E02B16A3
:1021BA0009F4C9CBB0E03B1611F4BAE02B1609F4C6
:1021CA00D9CBB0E03B1611F4BBE02B1609F4E9CBEE
:1021DA00B0E03B1611F4BCE02B1609F4F9CBB0E0E1
:1021EA003B1611F4BDE02B1609F409CCB0E03B16FE
:1021FA0011F4BEE02B1609F419CCB0E03B1611F429
:10220A00BFE02B1609F429CCB0E03B1611F4B0E17B
:10221A002B1609F439CCB0E03B1611F4B1E12B16B8
:10222A0009F449CCB0E03B1611F4B2E12B1609F4DB
:10223A005BCCB0E03B1611F4B3E12B1609F46DCC7C
:10224A00B0E03B1611F4B4E12B1609F47FCCB0E0F0
:10225A003B1611F4B5E12B1609F491CCB0E03B160C
:10226A0011F4B6E12B1609F4A3CCB0E03B1611F435
:10227A00B7E12B1609F4B5CCB0E03B1611F4B8E17E
:10228A002B1609F4C7CCB0E03B1611F4B9E12B16B2
:10229A0009F4D9CCB0E03B1611F4BAE12B1609F4D3
:1022AA00EBCCB0E03B1611F4BBE12B1609F4FDCCE4
:1022BA00B0E03B1611F4BCE12B1609F40FCDB0E0E7
:1022CA003B1611F4BDE12B1609F421CDB0E03B1603
:1022DA0011F4BEE12B1609F433CDB0E03B1611F42C
:1022EA00BFE12B1609F445CDB0E03B1611F4B0E27C
:1022FA002B1609F457CDB0E03B1611F4B1E22B16B8
:10230A0009F46ACDB0E03B1611F4B2E22B1609F4D7
:10231A007DCDB0E03B1611F4B3E22B1609F490CD53
:10232A00B0E03B1611F4B4E22B1609F4A3CDB0E0E9
:10233A003B1611F4B5E22B1609F4B6CDB0E03B1604
:10234A0011F4B6E22B1609F4C9CDB0E03B1611F42C
:10235A00B7E22B1609F4DCCDB0E03B1611F4B8E273
:10236A002B1609F4EFCDB0E03B1611F4B9E22B16A7
:10237A0009F402CEB0E03B1611F4BAE22B1609F4C6
:10238A0013CEB0E03B1611F4BBE22B1609F424CEAF
:10239A00B0E03B1611F4BCE22B1609F435CEB0E0DE
:1023AA003B1611F4BDE22B1609F446CEB0E03B16FB
:1023BA0011F4BEE22B1609F457CEB0E03B1611F425
:1023CA00BFE22B1609F468CEB0E03B1611F4B0E375
:1023DA002B1609F47BCEB0E03B1611F4B1E32B16B1
:0823EA0009F48ECE8201089572
:10171800CF93DF93CDB7DEB72497CDBFDEBF219639
:101728002F923F92B0E0B883B9832A823B8200E0CF
:1017380010E02016310654F4B1E0B883B0E0B98364
:1017480000E010E0021913090A831B832A803B80FA
:101758000E947A0066E070E0AB0100E010E0041738
:10176800150790F49A01240D351D8A010150104087
:10177800F801E40DF51D0081F90100838A0101508B
:101788001040B801AB01E9CFF201B0E2B0830881A3
:101798001981B02FB12BA9F020E030E0F901E40D58
:1017A800F51D0081003229F489010F5F1F4F980150
:1017B800F5CF890101501040F801E40DF51DBDE297
:1017C800B0833F902F902396CDBFDEBFDF91CF919E
:0217D800089572
:1000F400CF93DF93CDB7DEB72297CDBFDEBF219676
:1001040010E0153050F4E12FF0E0E40DF51DB0E2FD
:10011400B083012F0F5F102FF4CFE12FF0E0E40D37
:10012400F51DB0E0B083012F0150302F032F10E0F4
:10013400040D151D088319834AE050E08101C4DFD2
:100144008D01202F205D08811981F80120834AE068
:1001540050E08101B9DF8C011801103009F400303E
:1001640009F404C0032F0150302FE0CF2196CDBFF6
:08017400DEBFDF91CF91089579
:1000CC00C801BA01AA1BBB1B51E107C0AA1FBB1F69
:1000DC00A617B70710F0A61BB70B881F991F5A95C8
:0800EC00A9F780959095089595
:10079200ACC2B5E1B8BBB8E4B3B928E01BE108E2EA
:1007A2000A95F1F71A95E1F72A95D1F7F2013296F7
:1007B2000091630001700193B0E0B19381010F5F7A
:1007C2001F4F1801B9E4B3B928E01BE108E20A950A
:1007D200F1F71A95E1F72A95D1F7F20134960091D3
:1007E200630001700193B0E0B19381010F5F1F4F6D
:1007F2001801BAE4B3B928E01BE108E20A95F1F75F
:100802001A95E1F72A95D1F7F20136960091630025
:1008120001700193B0E0B19381010F5F1F4F180186
:10082200BBE4B3B928E01BE108E20A95F1F71A9597
:10083200E1F72A95D1F7F201389600916300017031
:100842000193B0E0B19381010F5F1F4F1801BCE427
:10085200B3B928E01BE108E20A95F1F71A95E1F72E
:100862002A95D1F7F2013A96009163000170019343
:10087200B0E0B19381010F5F1F4F1801BDE4B3B91E
:1008820028E01BE108E20A95F1F71A95E1F72A95AB
:10089200D1F7F2013C960091630001700193B0E040
:1008A200B19381010F5F1F4F1801BEE4B3B928E075
:1008B2001BE108E20A95F1F71A95E1F72A95D1F7BB
:1008C200F2013E960091630001700193B0E0B19392
:1008D20081010F5F1F4F1801BFE4B3B928E01BE18C
:1008E20008E20A95F1F71A95E1F72A95D1F7F20194
:1008F20070960091630001700193B0E0B1938101A1
:100902000F5F1F4F1801B0E3B3B928E01BE108E203
:100912000A95F1F71A95E1F72A95D1F7F201729645
:100922000091630001700193B0E0B19381010F5F08
:100932001F4F1801B1E3B3B928E01BE108E20A95A1
:10094200F1F71A95E1F72A95D1F7F2017496009121
:10095200630001700193B0E0B19381010F5F1F4FFB
:100962001801B2E3B3B928E01BE108E20A95F1F7F6
:100972001A95E1F72A95D1F7F20176960091630074
:1009820001700193B0E0B19381010F5F1F4F180115
:10099200B3E3B3B928E01BE108E20A95F1F71A952F
:1009A200E1F72A95D1F7F201789600916300017080
:1009B2000193B0E0B19381010F5F1F4F1801B4E3BF
:1009C200B3B928E01BE108E20A95F1F71A95E1F7BD
:1009D2002A95D1F7F2017A96009163000170019392
:1009E200B0E0B19381010F5F1F4F1801B5E3B3B9B6
:1009F20028E01BE108E20A95F1F71A95E1F72A953A
:100A0200D1F7F2017C960091630001700193B0E08E
:100A1200B19381010F5F1F4F1801B6E3B3B928E00C
:100A22001BE108E20A95F1F71A95E1F72A95D1F749
:100A3200F2017E960091630001700193B0E0B193E0
:100A420081010F5F1F4F1801B7E3B3B928E01BE123
:100A520008E20A95F1F71A95E1F72A95D1F7F20122
:100A6200B0960091630001700193B0E0B1938101EF
:100A72000F5F1F4F1801B0EDB3B9B4E1B8BB28E066
:100A82001BE108E20A95F1F71A95E1F72A95D1F7E9
:100A9200F201B2960091630001700193B0E0B1934C
:100AA20081010F5F1F4F18010091620001600093E6
:100AB200620028E01BE108E20A95F1F71A95E1F7D6
:100AC2002A95D1F7F201B49600B102700193B0E019
:100AD200B19381010F5F1F4F180100916200016005
:100AE2000093620028E01BE108E20A95F1F71A95EB
:100AF200E1F72A95D1F7F201B69600B1047001939D
:100B0200B0E0B19381010F5F1F4F180100916200A5
:100B120001600093620028E01BE108E20A95F1F708
:100B22001A95E1F72A95D1F7F201B89600B108704B
:100B32000193B0E0B19381010F5F1F4F180105B31C
:100B4200016005BB28E01BE108E20A95F1F71A955E
:100B5200E1F72A95D1F7F201BA9603B30270019335
:100B6200B0E0B19381010F5F1F4F180105B301601F
:100B720005BB28E01BE108E20A95F1F71A95E1F7B7
:100B82002A95D1F7F201BC9603B304700193B0E049
:100B9200B19381010F5F1F4F180105B3016005BBBF
:100BA20028E01BE108E20A95F1F71A95E1F72A9588
:100BB200D1F7F201BE9603B308700193B0E0B1938E
:100BC20081010F5F1F4F180105B3016005BB28E0CB
:100BD2001BE108E20A95F1F71A95E1F72A95D1F798
:100BE200F201F09603B300710193B0E0B193810179
:100BF2000F5F1F4F180105B3016005BB28E01BE121
:100C020008E20A95F1F71A95E1F72A95D1F7F20170
:100C1200F29603B300720193B0E0B19381010F5FCA
:100C22001F4F180105B3016005BB28E01BE108E274
:100C32000A95F1F71A95E1F72A95D1F7F201F496A0
:100C420003B300740193B0E0B19381010F5F1F4FB2
:100C52001801B0916200B061B093620028E01BE11C
:100C620008E20A95F1F71A95E1F72A95D1F7F20110
:100C7200F69600B100720193B0E0B19381010F5F6B
:100C82001F4F18010091620000610093620028E08A
:100C92001BE108E20A95F1F71A95E1F72A95D1F7D7
:100CA200F201F89600B100740193B0E0B1938101B2
:100CB2000F5F1F4F180100916200006100936200F4
:100CC20028E01BE108E20A95F1F71A95E1F72A9567
:100CD200D1F7F201FA9600B100780193B0E0B19336
:100CE20081010F5F1F4F1801CBC0B0E03B1611F41A
:100CF200B1E02B1609F44DCDB0E03B1611F4B2E091
:100D02002B1609F45FCDB0E03B1611F4B3E02B16BD
:100D120009F46FCDB0E03B1611F4B4E02B1609F4E0
:100D22007FCDB0E03B1611F4B5E02B1609F48FCD60
:100D3200B0E03B1611F4B6E02B1609F49FCDB0E0FB
:100D42003B1611F4B7E02B1609F4AFCDB0E03B1619
:100D520011F4B8E02B1609F4BFCDB0E03B1611F444
:100D6200B9E02B1609F4CFCDB0E03B1611F4BAE08E
:100D72002B1609F4DFCDB0E03B1611F4BBE02B16C5
:100D820009F4EFCDB0E03B1611F4BCE02B1609F4E8
:100D9200FFCDB0E03B1611F4BDE02B1609F40FCEE7
:100DA200B0E03B1611F4BEE02B1609F41FCEB0E002
:100DB2003B1611F4BFE02B1609F42FCEB0E03B1620
:100DC20011F4B0E12B1609F43FCEB0E03B1611F45A
:100DD200B1E12B1609F44FCEB0E03B1611F4B2E1AB
:100DE2002B1609F461CEB0E03B1611F4B3E12B16D9
:100DF20009F473CEB0E03B1611F4B4E12B1609F4FA
:100E020085CEB0E03B1611F4B5E12B1609F497CE6E
:100E1200B0E03B1611F4B6E12B1609F4A7CEB0E010
:100E22003B1611F4B7E12B1609F4B7CEB0E03B162E
:100E320011F4B8E12B1609F4C7CEB0E03B1611F459
:100E4200B9E12B1609F4D7CEB0E03B1611F4BAE1A2
:100E52002B1609F4E7CEB0E03B1611F4BBE12B16DA
:100E620009F4F7CEB0E03B1611F4BCE12B1609F4FD
:100E720009CFB0E03B1611F4BDE12B1609F41BCFEC
:040E8200820108954C
:10050A00FBC0B1EDB3B9B4E1B8BB28E01BE108E226
:10051A000A95F1F71A95E1F72A95D1F7F201329681
:10052A000091630001700193B0E0B19381010F5F04
:10053A001F4F1801B2EDB3B9B4E1B8BB28E01BE113
:10054A0008E20A95F1F71A95E1F72A95D1F7F2012F
:10055A0034960091630001700193B0E0B193810178
:10056A000F5F1F4F1801B3EDB3B9B4E1B8BB28E070
:10057A001BE108E20A95F1F71A95E1F72A95D1F7F6
:10058A00F20136960091630001700193B0E0B193D5
:10059A0081010F5F1F4F1801B4EDB3B9B4E1B8BBC5
:1005AA0028E01BE108E20A95F1F71A95E1F72A9586
:1005BA00D1F7F20138960091630001700193B0E01F
:1005CA00B19381010F5F1F4F1801B5EDB3B9B4E1C3
:1005DA00B8BB28E01BE108E20A95F1F71A95E1F7A2
:1005EA002A95D1F7F2013A960091630001700193BE
:1005FA00B0E0B19381010F5F1F4F1801B6EDB3B997
:10060A00B4E1B8BB28E01BE108E20A95F1F71A95B4
:10061A00E1F72A95D1F7F2013C9600916300017047
:10062A000193B0E0B19381010F5F1F4F1801B7ED3D
:10063A00B3B9B4E1B8BB28E01BE108E20A95F1F7C7
:10064A001A95E1F72A95D1F7F2013E9600916300D7
:10065A0001700193B0E0B19381010F5F1F4F180140
:10066A00B0E5B3B9B3E1B8BB28E01BE108E20A95EB
:10067A00F1F71A95E1F72A95D1F7F20170960091F0
:10068A00630001700193B0E0B19381010F5F1F4FC6
:10069A001801B1E5B3B9B3E1B8BB28E01BE108E240
:1006AA000A95F1F71A95E1F72A95D1F7F2017296B0
:1006BA000091630001700193B0E0B19381010F5F73
:1006CA001F4F1801B2E5B3B9B3E1B8BB28E01BE18B
:1006DA0008E20A95F1F71A95E1F72A95D1F7F2019E
:1006EA0074960091630001700193B0E0B1938101A7
:1006FA000F5F1F4F180146C0B0E03B1611F4B1E07E
:10070A002B1609F4FECEB0E03B1611F4B2E02B161C
:10071A0009F410CFB0E03B1611F4B3E02B1609F43C
:10072A0022CFB0E03B1611F4B4E02B1609F434CF13
:10073A00B0E03B1611F4B5E02B1609F446CFB0E051
:10074A003B1611F4B6E02B1609F458CFB0E03B166D
:10075A0011F4B7E02B1609F46ACFB0E03B1611F496
:10076A00B8E02B1609F47CCFB0E03B1611F4B9E0DF
:10077A002B1609F48ECFB0E03B1611F4BAE02B1613
:08078A0009F4A0CF82010895DB
:100E8600FBC0B3E5B3B9B3E1B8BB28E01BE108E2A8
:100E96000A95F1F71A95E1F72A95D1F7F2013296FC
:100EA6000091630001700193B0E0B19381010F5F7F
:100EB6001F4F1801B4E5B3B9B3E1B8BB28E01BE195
:100EC60008E20A95F1F71A95E1F72A95D1F7F201AA
:100ED60034960091630001700193B0E0B1938101F3
:100EE6000F5F1F4F1801B5E5B3B9B3E1B8BB28E0F2
:100EF6001BE108E20A95F1F71A95E1F72A95D1F771
:100F0600F20136960091630001700193B0E0B1934F
:100F160081010F5F1F4F1801B6E5B3B9B3E1B8BB46
:100F260028E01BE108E20A95F1F71A95E1F72A9500
:100F3600D1F7F20138960091630001700193B0E099
:100F4600B19381010F5F1F4F1801B7E5B3B9B3E144
:100F5600B8BB28E01BE108E20A95F1F71A95E1F71C
:100F66002A95D1F7F2013A96009163000170019338
:100F7600B0E0B19381010F5F1F4F1801B0E5B3B91F
:100F8600BDE0B8BB28E01BE108E20A95F1F71A9527
:100F9600E1F72A95D1F7F2013C96009163000170C2
:100FA6000193B0E0B19381010F5F1F4F1801B1E5C6
:100FB600B3B9BDE0B8BB28E01BE108E20A95F1F73A
:100FC6001A95E1F72A95D1F7F2013E960091630052
:100FD60001700193B0E0B19381010F5F1F4F1801BB
:100FE600B2E5B3B9BDE0B8BB28E01BE108E20A955B
:100FF600F1F71A95E1F72A95D1F7F201709600916B
:10100600630001700193B0E0B19381010F5F1F4F40
:101016001801B3E5B3B9BDE0B8BB28E01BE108E2AF
:101026000A95F1F71A95E1F72A95D1F7F20172962A
:101036000091630001700193B0E0B19381010F5FED
:101046001F4F1801B4E5B3B9BDE0B8BB28E01BE1FA
:1010560008E20A95F1F71A95E1F72A95D1F7F20118
:1010660074960091630001700193B0E0B193810121
:101076000F5F1F4F180146C0B0E03B1611F4B1E0F8
:101086002B1609F4FECEB0E03B1611F4B2E02B1697
:1010960009F410CFB0E03B1611F4B3E02B1609F4B7
:1010A60022CFB0E03B1611F4B4E02B1609F434CF8E
:1010B600B0E03B1611F4B5E02B1609F446CFB0E0CC
:1010C6003B1611F4B6E02B1609F458CFB0E03B16E8
:1010D60011F4B7E02B1609F46ACFB0E03B1611F411
:1010E600B8E02B1609F47CCFB0E03B1611F4B9E05A
:1010F6002B1609F48ECFB0E03B1611F4BAE02B168E
:0811060009F4A0CF8201089555
:10111800A5C1B5E1B8BBB8E4B3B928E01BE108E262
:101128000A95F1F71A95E1F72A95D1F7F201329667
:101138000091630001700193B0E0B19381010F5FEA
:101148001F4F1801B9E4B3B928E01BE108E20A957A
:10115800F1F71A95E1F72A95D1F7F2013496009143
:10116800630001700193B0E0B19381010F5F1F4FDD
:101178001801BAE4B3B928E01BE108E20A95F1F7CF
:101188001A95E1F72A95D1F7F20136960091630096
:1011980001700193B0E0B19381010F5F1F4F1801F7
:1011A800BBE4B3B928E01BE108E20A95F1F71A9508
:1011B800E1F72A95D1F7F2013896009163000170A2
:1011C8000193B0E0B19381010F5F1F4F1801BCE498
:1011D800B3B928E01BE108E20A95F1F71A95E1F79F
:1011E8002A95D1F7F2013A960091630001700193B4
:1011F800B0E0B19381010F5F1F4F1801BDE4B3B98F
:1012080028E01BE108E20A95F1F71A95E1F72A951B
:10121800D1F7F2013C960091630001700193B0E0B0
:10122800B19381010F5F1F4F1801BEE4B3B928E0E5
:101238001BE108E20A95F1F71A95E1F72A95D1F72B
:10124800F2013E960091630001700193B0E0B19302
:1012580081010F5F1F4F1801BFE4B3B928E01BE1FC
:1012680008E20A95F1F71A95E1F72A95D1F7F20104
:1012780070960091630001700193B0E0B193810111
:101288000F5F1F4F1801B0E3B3B928E01BE108E274
:101298000A95F1F71A95E1F72A95D1F7F2017296B6
:1012A8000091630001700193B0E0B19381010F5F79
:1012B8001F4F1801B1E3B3B928E01BE108E20A9512
:1012C800F1F71A95E1F72A95D1F7F2017496009192
:1012D800630001700193B0E0B19381010F5F1F4F6C
:1012E8001801B2E3B3B928E01BE108E20A95F1F767
:1012F8001A95E1F72A95D1F7F201769600916300E5
:1013080001700193B0E0B19381010F5F1F4F180185
:10131800B3E3B3B928E01BE108E20A95F1F71A959F
:10132800E1F72A95D1F7F2017896009163000170F0
:101338000193B0E0B19381010F5F1F4F1801B4E32F
:10134800B3B928E01BE108E20A95F1F71A95E1F72D
:101358002A95D1F7F2017A96009163000170019302
:10136800B0E0B19381010F5F1F4F1801B5E3B3B926
:1013780028E01BE108E20A95F1F71A95E1F72A95AA
:10138800D1F7F2017C960091630001700193B0E0FF
:10139800B19381010F5F1F4F1801B6E3B3B928E07D
:1013A8001BE108E20A95F1F71A95E1F72A95D1F7BA
:1013B800F2017E960091630001700193B0E0B19351
:1013C80081010F5F1F4F1801B7E3B3B928E01BE194
:1013D80008E20A95F1F71A95E1F72A95D1F7F20193
:1013E800B0960091630001700193B0E0B193810160
:1013F8000F5F1F4F1801B0EDB3B9B4E1B8BB28E0D7
:101408001BE108E20A95F1F71A95E1F72A95D1F759
:10141800F201B2960091630001700193B0E0B193BC
:1014280081010F5F1F4F1801B1EDB3B9B4E1B8BB2B
:1014380028E01BE108E20A95F1F71A95E1F72A95E9
:10144800D1F7F201B4960091630001700193B0E006
:10145800B19381010F5F1F4F18017EC0B0E03B16AA
:1014680011F4B1E02B1609F454CEB0E03B1611F498
:10147800B2E02B1609F466CEB0E03B1611F4B3E0E7
:101488002B1609F476CEB0E03B1611F4B4E02B1617
:1014980009F486CEB0E03B1611F4B5E02B1609F43A
:1014A80096CEB0E03B1611F4B6E02B1609F4A6CEA2
:1014B800B0E03B1611F4B7E02B1609F4B6CEB0E055
:1014C8003B1611F4B8E02B1609F4C6CEB0E03B1673
:1014D80011F4B9E02B1609F4D6CEB0E03B1611F49E
:1014E800BAE02B1609F4E6CEB0E03B1611F4BBE0E7
:1014F8002B1609F4F6CEB0E03B1611F4BCE02B161F
:1015080009F406CFB0E03B1611F4BDE02B1609F440
:1015180016CFB0E03B1611F4BEE02B1609F426CF27
:10152800B0E03B1611F4BFE02B1609F436CFB0E05B
:101538003B1611F4B0E12B1609F446CFB0E03B1688
:1015480011F4B1E12B1609F456CFB0E03B1611F4B3
:0C155800B2E12B1609F468CF820108955F
:0A110E0005900D920197E1F7089596
:1035AE00A0E0B1E0E0E8F2E381E093E00E9487085A
:0235BE0008956E
:103280004578656375746172205465737465203781
:01329000003D
:0F329100492F4F2028542D43454C4553432900C6
:1032A00049484D202D20444649504D20284246296A
:0132B000001D
:0932B100492F3020284246290073
:1032BA004578656375746172205465737465203648
:0132CA000003
:0532CB005649413A00E4
:0232D0000000FC
:1032D20046414C4841204E4F20544553544521000D
:1032E200000032003300340035005B005C005D00FA
:1032F2004700480049004A004B004C003C003D009A
:103302003E003F001E001F0020002100220023007B
:1033120024002500260027002D00280029002A006D
:103322002C002B002F002E00310030005E006000C8
:1033320062004D004D004D004D004D004D0040001B
:043342004000400007
:0A3346005465737465204F4B21009D
:1033500045786563757461722054657374652032B5
:01336000006C
:0D336100434F4E54524F4C4520284929003F
:0D336E00434F4D504C45544F202849290035
:02337B00000050
:10337D004578656375746172205465737465203189
:01338D00003F
:08338E00492F302028492900D5
:10339600457865637574617220546573746520356C
:0133A6000026
:1033A700457865637574617220546573746520345C
:0133B7000015
:1033B800457865637574617220546573746520334C
:0133C8000004
:1033C90049484D202D20444649504D20284929007F
:1033D90046414C4841204E4F205445535445210005
:0533E9005649413A00C5
:0A33EE005465737465204F4B2100F5
:0B33F800416775617264652E2E2E0087
:1034030000002D00280029002A002C002B002F008B
:063413002E003100300024
:053419005649413A0094
:10341E0046414C4841204E4F2054455354452100BF
:10342E0000006C006D006A006900680073006F0098
:10343E007000710072006E006B0074007500640005
:06344E0065006600670046
:0A3454005465737465204F4B21008E
:10345E0046414C4841204E4F20544553544521007F
:05346E005649413A003F
:0A3473005465737465204F4B21006F
:10347D00000032003300340035005B005C005D005D
:10348D004700480049004A004B004C003C003D00FD
:10349D003E003F005E00600062004D004D004D009B
:0C34AD004D004D004D004000400040006C
:0534B9005649413A00F4
:1034BE00457865637574616E646F205465737465C9
:0134CE0000FD
:1034CF0046414C4841204E4F20544553544521000E
:1034DF0000001E001F0020002100220023002400F6
:0634EF0025002600270065
:0A34F5005465737465204F4B2100ED
:1034FF005465737461646F722056312E322E300012
:10350F0053656C6563696F6E617220546573746582
:01351F0000AB
:0A352000455845435554415221001F
:0E352A005072657373696F6E65204D4F4400DB
:103538004C555041205445434E4F4C4F474941004C
:10354800457865637574616E646F2054657374653E
:013558000072
:0235590001006F
:10355B00496E696369616C697A616E646F2E2E2E98
:01356B00005F
:0A356C005072657373696F6E65009D
:0B357600416775617264652E2E2E0007
:02358100010047
:02358300000046
:02358500010043
:02358700000042
:0235890031000F
:02358B0001003D
:02358D0000003C
:02358F0000003A
:02359100010037
:02359300010035
:02359500000034
:02359700000032
:0235990001002F
:02359B0001002D
:02359D0000002C
:02359F00010029
:0235A100000028
:0235A300120014
:0235A500010023
:0235A700000022
:0235A90001001F
:0235AB0000001E
:00000001FF
